{
  "contractName": "LaborContract",
  "abi": [
    {
      "anonymous": false,
      "inputs": [
        {
          "indexed": false,
          "internalType": "string",
          "name": "name",
          "type": "string"
        },
        {
          "indexed": false,
          "internalType": "int256",
          "name": "timeHour",
          "type": "int256"
        },
        {
          "indexed": false,
          "internalType": "int256",
          "name": "timeMinute",
          "type": "int256"
        }
      ],
      "name": "Offwork",
      "type": "event"
    },
    {
      "anonymous": false,
      "inputs": [
        {
          "indexed": false,
          "internalType": "string",
          "name": "name",
          "type": "string"
        },
        {
          "indexed": false,
          "internalType": "int256",
          "name": "timeHour",
          "type": "int256"
        },
        {
          "indexed": false,
          "internalType": "int256",
          "name": "timeMinute",
          "type": "int256"
        }
      ],
      "name": "Onwork",
      "type": "event"
    },
    {
      "inputs": [
        {
          "internalType": "address",
          "name": "person",
          "type": "address"
        }
      ],
      "name": "getPersonInformation",
      "outputs": [
        {
          "components": [
            {
              "internalType": "uint8",
              "name": "identiNumber",
              "type": "uint8"
            },
            {
              "internalType": "string",
              "name": "name",
              "type": "string"
            },
            {
              "internalType": "uint256",
              "name": "age",
              "type": "uint256"
            },
            {
              "internalType": "string",
              "name": "gender",
              "type": "string"
            }
          ],
          "internalType": "struct LaborContract.personalInfo",
          "name": "",
          "type": "tuple"
        }
      ],
      "stateMutability": "view",
      "type": "function",
      "constant": true
    },
    {
      "inputs": [
        {
          "internalType": "uint256",
          "name": "workplaceInfoIndex",
          "type": "uint256"
        }
      ],
      "name": "getEmployeeInfo",
      "outputs": [
        {
          "internalType": "address[]",
          "name": "",
          "type": "address[]"
        },
        {
          "internalType": "string[]",
          "name": "",
          "type": "string[]"
        }
      ],
      "stateMutability": "view",
      "type": "function",
      "constant": true
    },
    {
      "inputs": [
        {
          "internalType": "uint256",
          "name": "workplaceInfoIndex",
          "type": "uint256"
        }
      ],
      "name": "getNumOfEmployee",
      "outputs": [
        {
          "internalType": "uint256",
          "name": "",
          "type": "uint256"
        }
      ],
      "stateMutability": "view",
      "type": "function",
      "constant": true
    },
    {
      "inputs": [
        {
          "internalType": "uint256",
          "name": "workplaceInfoIndex",
          "type": "uint256"
        },
        {
          "internalType": "address",
          "name": "employeeAddress",
          "type": "address"
        }
      ],
      "name": "getIndexOfEmployee",
      "outputs": [
        {
          "internalType": "uint256",
          "name": "",
          "type": "uint256"
        }
      ],
      "stateMutability": "view",
      "type": "function",
      "constant": true
    },
    {
      "inputs": [],
      "name": "getWorkplaces",
      "outputs": [
        {
          "internalType": "uint256[]",
          "name": "",
          "type": "uint256[]"
        },
        {
          "internalType": "string[]",
          "name": "",
          "type": "string[]"
        },
        {
          "internalType": "string[]",
          "name": "",
          "type": "string[]"
        }
      ],
      "stateMutability": "view",
      "type": "function",
      "constant": true
    },
    {
      "inputs": [
        {
          "internalType": "uint256",
          "name": "workplaceInfoIndex",
          "type": "uint256"
        },
        {
          "internalType": "address",
          "name": "employeeAddress",
          "type": "address"
        }
      ],
      "name": "getLaborContract",
      "outputs": [
        {
          "components": [
            {
              "internalType": "uint256",
              "name": "workplaceIndex",
              "type": "uint256"
            },
            {
              "internalType": "string",
              "name": "peroid",
              "type": "string"
            },
            {
              "internalType": "string",
              "name": "duties",
              "type": "string"
            },
            {
              "internalType": "string",
              "name": "workingTime",
              "type": "string"
            },
            {
              "internalType": "string",
              "name": "workingDays",
              "type": "string"
            },
            {
              "internalType": "string",
              "name": "wage",
              "type": "string"
            },
            {
              "internalType": "string",
              "name": "wageday",
              "type": "string"
            },
            {
              "internalType": "string",
              "name": "comment",
              "type": "string"
            }
          ],
          "internalType": "struct LaborContract.laborContract",
          "name": "",
          "type": "tuple"
        }
      ],
      "stateMutability": "view",
      "type": "function",
      "constant": true
    },
    {
      "inputs": [
        {
          "internalType": "uint256",
          "name": "workplaceInfoIndex",
          "type": "uint256"
        },
        {
          "internalType": "uint256",
          "name": "employeeIndex",
          "type": "uint256"
        }
      ],
      "name": "getWage",
      "outputs": [
        {
          "internalType": "string",
          "name": "",
          "type": "string"
        }
      ],
      "stateMutability": "view",
      "type": "function",
      "constant": true
    },
    {
      "inputs": [
        {
          "internalType": "uint256",
          "name": "workplaceInfoIndex",
          "type": "uint256"
        },
        {
          "internalType": "uint256",
          "name": "employeeIndex",
          "type": "uint256"
        }
      ],
      "name": "getCalAttendance",
      "outputs": [
        {
          "internalType": "string[]",
          "name": "",
          "type": "string[]"
        },
        {
          "internalType": "string[]",
          "name": "",
          "type": "string[]"
        }
      ],
      "stateMutability": "view",
      "type": "function",
      "constant": true
    },
    {
      "inputs": [
        {
          "internalType": "uint256",
          "name": "workplaceInfoIndex",
          "type": "uint256"
        },
        {
          "internalType": "uint256",
          "name": "employeeIndex",
          "type": "uint256"
        }
      ],
      "name": "getAllAttendance",
      "outputs": [
        {
          "components": [
            {
              "internalType": "string[]",
              "name": "startDay",
              "type": "string[]"
            },
            {
              "internalType": "int256[]",
              "name": "startTimeHour",
              "type": "int256[]"
            },
            {
              "internalType": "int256[]",
              "name": "startTimeMinute",
              "type": "int256[]"
            },
            {
              "internalType": "string[]",
              "name": "endDay",
              "type": "string[]"
            },
            {
              "internalType": "int256[]",
              "name": "endTimeHour",
              "type": "int256[]"
            },
            {
              "internalType": "int256[]",
              "name": "endTimeMinute",
              "type": "int256[]"
            }
          ],
          "internalType": "struct LaborContract.attendance",
          "name": "",
          "type": "tuple"
        }
      ],
      "stateMutability": "view",
      "type": "function",
      "constant": true
    },
    {
      "inputs": [
        {
          "internalType": "uint256",
          "name": "workplaceInfoIndex",
          "type": "uint256"
        },
        {
          "internalType": "uint256",
          "name": "employeeIndex",
          "type": "uint256"
        },
        {
          "internalType": "uint256",
          "name": "startIndex",
          "type": "uint256"
        },
        {
          "internalType": "uint256",
          "name": "endIndex",
          "type": "uint256"
        }
      ],
      "name": "getWorkTime",
      "outputs": [
        {
          "internalType": "int256",
          "name": "",
          "type": "int256"
        },
        {
          "internalType": "int256",
          "name": "",
          "type": "int256"
        }
      ],
      "stateMutability": "view",
      "type": "function",
      "constant": true
    },
    {
      "inputs": [
        {
          "internalType": "uint256",
          "name": "workplaceInfoIndex",
          "type": "uint256"
        },
        {
          "internalType": "uint256",
          "name": "employeeIndex",
          "type": "uint256"
        },
        {
          "internalType": "uint256",
          "name": "startIndex",
          "type": "uint256"
        },
        {
          "internalType": "uint256",
          "name": "endIndex",
          "type": "uint256"
        },
        {
          "internalType": "int256",
          "name": "wage",
          "type": "int256"
        }
      ],
      "name": "getPayment",
      "outputs": [
        {
          "internalType": "int256",
          "name": "",
          "type": "int256"
        }
      ],
      "stateMutability": "view",
      "type": "function",
      "constant": true
    },
    {
      "inputs": [
        {
          "internalType": "address",
          "name": "person",
          "type": "address"
        },
        {
          "internalType": "uint8",
          "name": "identiNumber",
          "type": "uint8"
        },
        {
          "internalType": "string",
          "name": "name",
          "type": "string"
        },
        {
          "internalType": "uint256",
          "name": "age",
          "type": "uint256"
        },
        {
          "internalType": "string",
          "name": "gender",
          "type": "string"
        }
      ],
      "name": "uploadPersonalInfo",
      "outputs": [],
      "stateMutability": "nonpayable",
      "type": "function"
    },
    {
      "inputs": [
        {
          "internalType": "address",
          "name": "employerAddress",
          "type": "address"
        },
        {
          "internalType": "string",
          "name": "workplaceName",
          "type": "string"
        },
        {
          "internalType": "string",
          "name": "location",
          "type": "string"
        }
      ],
      "name": "uploadWorkplace",
      "outputs": [],
      "stateMutability": "nonpayable",
      "type": "function"
    },
    {
      "inputs": [
        {
          "internalType": "string[]",
          "name": "laborContractItems",
          "type": "string[]"
        },
        {
          "internalType": "address",
          "name": "employeeAddress",
          "type": "address"
        },
        {
          "internalType": "uint256",
          "name": "workplaceInfoIndex",
          "type": "uint256"
        }
      ],
      "name": "uploadLaborContract",
      "outputs": [],
      "stateMutability": "nonpayable",
      "type": "function"
    },
    {
      "inputs": [
        {
          "internalType": "uint8",
          "name": "classifyNum",
          "type": "uint8"
        },
        {
          "internalType": "uint256",
          "name": "workPlaceInfoIndex",
          "type": "uint256"
        },
        {
          "internalType": "string",
          "name": "day",
          "type": "string"
        },
        {
          "internalType": "int256",
          "name": "timeHour",
          "type": "int256"
        },
        {
          "internalType": "int256",
          "name": "timeMinute",
          "type": "int256"
        }
      ],
      "name": "uploadAttendance",
      "outputs": [],
      "stateMutability": "nonpayable",
      "type": "function"
    }
  ],
  "bytecode": "0x60806040526000600455600060055534801561001a57600080fd5b506150228061002a6000396000f3fe608060405234801561001057600080fd5b50600436106100f55760003560e01c80637ece75e311610097578063c086982911610066578063c0869829146102c0578063e1d99c6f146102f0578063e53751f01461030c578063f6757cff1461033c576100f5565b80637ece75e314610223578063957598b41461023f578063968da72b1461026f5780639a832c38146102a0576100f5565b806351f97eaa116100d357806351f97eaa146101765780636451312a146101a7578063651415da146101d7578063747750ff146101f3576100f5565b806314bba4d7146100fa578063472fc6ed146101165780634fbfa36314610146575b600080fd5b610114600480360381019061010f9190613e46565b61036d565b005b610130600480360381019061012b9190613eb2565b610d18565b60405161013d919061499f565b60405180910390f35b610160600480360381019061015b9190613f17565b610d70565b60405161016d9190614859565b60405180910390f35b610190600480360381019061018b9190613f53565b610edb565b60405161019e929190614830565b60405180910390f35b6101c160048036038101906101bc9190613edb565b6112da565b6040516101ce919061495b565b60405180910390f35b6101f160048036038101906101ec9190613d96565b611a08565b005b61020d60048036038101906102089190613edb565b611b10565b60405161021a919061499f565b60405180910390f35b61023d60048036038101906102389190613d0d565b611c73565b005b61025960048036038101906102549190613fb6565b611f9d565b6040516102669190614815565b60405180910390f35b61028960048036038101906102849190613f17565b611ff7565b604051610297929190614792565b60405180910390f35b6102a86122d3565b6040516102b7939291906147c9565b60405180910390f35b6102da60048036038101906102d59190613ce4565b612838565b6040516102e7919061497d565b60405180910390f35b61030a6004803603810190610305919061402d565b612a49565b005b61032660048036038101906103219190613f17565b613095565b6040516103339190614939565b60405180910390f35b61035660048036038101906103519190613eb2565b613453565b60405161036492919061475b565b60405180910390f35b3373ffffffffffffffffffffffffffffffffffffffff168273ffffffffffffffffffffffffffffffffffffffff16146103db576040517f08c379a00000000000000000000000000000000000000000000000000000000081526004016103d290614919565b60405180910390fd5b60008060008473ffffffffffffffffffffffffffffffffffffffff1673ffffffffffffffffffffffffffffffffffffffff16815260200190815260200160002060000160009054906101000a900460ff1660ff161461046f576040517f08c379a0000000000000000000000000000000000000000000000000000000008152600401610466906148d9565b60405180910390fd5b610477613828565b81816000018181525050848460008181106104bb577f4e487b7100000000000000000000000000000000000000000000000000000000600052603260045260246000fd5b90506020028101906104cd91906149ba565b8080601f016020809104026020016040519081016040528093929190818152602001838380828437600081840152601f19601f82011690508083019250505050505050816020018190525084846001818110610552577f4e487b7100000000000000000000000000000000000000000000000000000000600052603260045260246000fd5b905060200281019061056491906149ba565b8080601f016020809104026020016040519081016040528093929190818152602001838380828437600081840152601f19601f820116905080830192505050505050508160400181905250848460028181106105e9577f4e487b7100000000000000000000000000000000000000000000000000000000600052603260045260246000fd5b90506020028101906105fb91906149ba565b8080601f016020809104026020016040519081016040528093929190818152602001838380828437600081840152601f19601f82011690508083019250505050505050816060018190525084846003818110610680577f4e487b7100000000000000000000000000000000000000000000000000000000600052603260045260246000fd5b905060200281019061069291906149ba565b8080601f016020809104026020016040519081016040528093929190818152602001838380828437600081840152601f19601f82011690508083019250505050505050816080018190525084846004818110610717577f4e487b7100000000000000000000000000000000000000000000000000000000600052603260045260246000fd5b905060200281019061072991906149ba565b8080601f016020809104026020016040519081016040528093929190818152602001838380828437600081840152601f19601f820116905080830192505050505050508160a00181905250848460058181106107ae577f4e487b7100000000000000000000000000000000000000000000000000000000600052603260045260246000fd5b90506020028101906107c091906149ba565b8080601f016020809104026020016040519081016040528093929190818152602001838380828437600081840152601f19601f820116905080830192505050505050508160c0018190525084846006818110610845577f4e487b7100000000000000000000000000000000000000000000000000000000600052603260045260246000fd5b905060200281019061085791906149ba565b8080601f016020809104026020016040519081016040528093929190818152602001838380828437600081840152601f19601f820116905080830192505050505050508160e0018190525060078190806001815401808255809150506001900390600052602060002090600802016000909190919091506000820151816000015560208201518160010190805190602001906108f492919061386d565b50604082015181600201908051906020019061091192919061386d565b50606082015181600301908051906020019061092e92919061386d565b50608082015181600401908051906020019061094b92919061386d565b5060a082015181600501908051906020019061096892919061386d565b5060c082015181600601908051906020019061098592919061386d565b5060e08201518160070190805190602001906109a292919061386d565b505050600160008473ffffffffffffffffffffffffffffffffffffffff1673ffffffffffffffffffffffffffffffffffffffff1681526020019081526020016000206005549080600181540180825580915050600190039060005260206000200160009091909190915055600360008473ffffffffffffffffffffffffffffffffffffffff1673ffffffffffffffffffffffffffffffffffffffff16815260200190815260200160002082908060018154018082558091505060019003906000526020600020016000909190919091505560068281548110610aad577f4e487b7100000000000000000000000000000000000000000000000000000000600052603260045260246000fd5b9060005260206000209060050201600201839080600181540180825580915050600190039060005260206000200160009091909190916101000a81548173ffffffffffffffffffffffffffffffffffffffff021916908373ffffffffffffffffffffffffffffffffffffffff16021790555060068281548110610b59577f4e487b7100000000000000000000000000000000000000000000000000000000600052603260045260246000fd5b9060005260206000209060050201600301600554908060018154018082558091505060019003906000526020600020016000909190919091505560608060608060608060006040518060c0016040528088815260200187815260200186815260200185815260200184815260200183815250905060068981548110610c07577f4e487b7100000000000000000000000000000000000000000000000000000000600052603260045260246000fd5b90600052602060002090600502016004018190806001815401808255809150506001900390600052602060002090600602016000909190919091506000820151816000019080519060200190610c5e9291906138f3565b506020820151816001019080519060200190610c7b929190613953565b506040820151816002019080519060200190610c98929190613953565b506060820151816003019080519060200190610cb59291906138f3565b506080820151816004019080519060200190610cd2929190613953565b5060a0820151816005019080519060200190610cef929190613953565b50505060056000815480929190610d0590614ea9565b9190505550505050505050505050505050565b600060068281548110610d54577f4e487b7100000000000000000000000000000000000000000000000000000000600052603260045260246000fd5b9060005260206000209060050201600201805490509050919050565b6060600760068481548110610dae577f4e487b7100000000000000000000000000000000000000000000000000000000600052603260045260246000fd5b90600052602060002090600502016003018381548110610df7577f4e487b7100000000000000000000000000000000000000000000000000000000600052603260045260246000fd5b906000526020600020015481548110610e39577f4e487b7100000000000000000000000000000000000000000000000000000000600052603260045260246000fd5b90600052602060002090600802016005018054610e5590614e77565b80601f0160208091040260200160405190810160405280929190818152602001828054610e8190614e77565b8015610ece5780601f10610ea357610100808354040283529160200191610ece565b820191906000526020600020905b815481529060010190602001808311610eb157829003601f168201915b5050505050905092915050565b60008060008060008060008890505b8781116112c65760068b81548110610f2b577f4e487b7100000000000000000000000000000000000000000000000000000000600052603260045260246000fd5b90600052602060002090600502016004018a81548110610f74577f4e487b7100000000000000000000000000000000000000000000000000000000600052603260045260246000fd5b90600052602060002090600602016001018181548110610fbd577f4e487b7100000000000000000000000000000000000000000000000000000000600052603260045260246000fd5b906000526020600020015460068c81548110611002577f4e487b7100000000000000000000000000000000000000000000000000000000600052603260045260246000fd5b90600052602060002090600502016004018b8154811061104b577f4e487b7100000000000000000000000000000000000000000000000000000000600052603260045260246000fd5b90600052602060002090600602016004018281548110611094577f4e487b7100000000000000000000000000000000000000000000000000000000600052603260045260246000fd5b90600052602060002001546110a99190614d5d565b925060068b815481106110e5577f4e487b7100000000000000000000000000000000000000000000000000000000600052603260045260246000fd5b90600052602060002090600502016004018a8154811061112e577f4e487b7100000000000000000000000000000000000000000000000000000000600052603260045260246000fd5b90600052602060002090600602016002018181548110611177577f4e487b7100000000000000000000000000000000000000000000000000000000600052603260045260246000fd5b906000526020600020015460068c815481106111bc577f4e487b7100000000000000000000000000000000000000000000000000000000600052603260045260246000fd5b90600052602060002090600502016004018b81548110611205577f4e487b7100000000000000000000000000000000000000000000000000000000600052603260045260246000fd5b9060005260206000209060060201600501828154811061124e577f4e487b7100000000000000000000000000000000000000000000000000000000600052603260045260246000fd5b90600052602060002001546112639190614d5d565b9150600083121561127e5760188361127b9190614b48565b92505b600082121561129757603c826112949190614b48565b91505b82856112a39190614b48565b945081846112b19190614b48565b935080806112be90614ea9565b915050610eea565b508383955095505050505094509492505050565b6112e2613828565b60008060008060003373ffffffffffffffffffffffffffffffffffffffff1673ffffffffffffffffffffffffffffffffffffffff16815260200190815260200160002060000160009054906101000a900460ff1660ff1614156115055760005b600160003373ffffffffffffffffffffffffffffffffffffffff1673ffffffffffffffffffffffffffffffffffffffff1681526020019081526020016000208054905081101561147b57856007600160003373ffffffffffffffffffffffffffffffffffffffff1673ffffffffffffffffffffffffffffffffffffffff1681526020019081526020016000208381548110611406577f4e487b7100000000000000000000000000000000000000000000000000000000600052603260045260246000fd5b906000526020600020015481548110611448577f4e487b7100000000000000000000000000000000000000000000000000000000600052603260045260246000fd5b90600052602060002090600802016000015414156114685780915061147b565b808061147390614ea9565b915050611342565b50600160003373ffffffffffffffffffffffffffffffffffffffff1673ffffffffffffffffffffffffffffffffffffffff16815260200190815260200160002081815481106114f3577f4e487b7100000000000000000000000000000000000000000000000000000000600052603260045260246000fd5b906000526020600020015491506115a2565b61150f8585611b10565b90506006858154811061154b577f4e487b7100000000000000000000000000000000000000000000000000000000600052603260045260246000fd5b90600052602060002090600502016003018181548110611594577f4e487b7100000000000000000000000000000000000000000000000000000000600052603260045260246000fd5b906000526020600020015491505b600782815481106115dc577f4e487b7100000000000000000000000000000000000000000000000000000000600052603260045260246000fd5b9060005260206000209060080201604051806101000160405290816000820154815260200160018201805461161090614e77565b80601f016020809104026020016040519081016040528092919081815260200182805461163c90614e77565b80156116895780601f1061165e57610100808354040283529160200191611689565b820191906000526020600020905b81548152906001019060200180831161166c57829003601f168201915b505050505081526020016002820180546116a290614e77565b80601f01602080910402602001604051908101604052809291908181526020018280546116ce90614e77565b801561171b5780601f106116f05761010080835404028352916020019161171b565b820191906000526020600020905b8154815290600101906020018083116116fe57829003601f168201915b5050505050815260200160038201805461173490614e77565b80601f016020809104026020016040519081016040528092919081815260200182805461176090614e77565b80156117ad5780601f10611782576101008083540402835291602001916117ad565b820191906000526020600020905b81548152906001019060200180831161179057829003601f168201915b505050505081526020016004820180546117c690614e77565b80601f01602080910402602001604051908101604052809291908181526020018280546117f290614e77565b801561183f5780601f106118145761010080835404028352916020019161183f565b820191906000526020600020905b81548152906001019060200180831161182257829003601f168201915b5050505050815260200160058201805461185890614e77565b80601f016020809104026020016040519081016040528092919081815260200182805461188490614e77565b80156118d15780601f106118a6576101008083540402835291602001916118d1565b820191906000526020600020905b8154815290600101906020018083116118b457829003601f168201915b505050505081526020016006820180546118ea90614e77565b80601f016020809104026020016040519081016040528092919081815260200182805461191690614e77565b80156119635780601f1061193857610100808354040283529160200191611963565b820191906000526020600020905b81548152906001019060200180831161194657829003601f168201915b5050505050815260200160078201805461197c90614e77565b80601f01602080910402602001604051908101604052809291908181526020018280546119a890614e77565b80156119f55780601f106119ca576101008083540402835291602001916119f5565b820191906000526020600020905b8154815290600101906020018083116119d857829003601f168201915b5050505050815250509250505092915050565b3373ffffffffffffffffffffffffffffffffffffffff168773ffffffffffffffffffffffffffffffffffffffff1614611a76576040517f08c379a0000000000000000000000000000000000000000000000000000000008152600401611a6d90614919565b60405180910390fd5b60008060008973ffffffffffffffffffffffffffffffffffffffff1673ffffffffffffffffffffffffffffffffffffffff1681526020019081526020016000209050868160000160006101000a81548160ff021916908360ff1602179055508585826001019190611ae89291906139a0565b508381600201819055508282826003019190611b059291906139a0565b505050505050505050565b60008060005b60068581548110611b50577f4e487b7100000000000000000000000000000000000000000000000000000000600052603260045260246000fd5b906000526020600020906005020160020180549050811015611c685760068581548110611ba6577f4e487b7100000000000000000000000000000000000000000000000000000000600052603260045260246000fd5b90600052602060002090600502016002018181548110611bef577f4e487b7100000000000000000000000000000000000000000000000000000000600052603260045260246000fd5b9060005260206000200160009054906101000a900473ffffffffffffffffffffffffffffffffffffffff1673ffffffffffffffffffffffffffffffffffffffff168473ffffffffffffffffffffffffffffffffffffffff161415611c5557809150611c68565b8080611c6090614ea9565b915050611b16565b508091505092915050565b3373ffffffffffffffffffffffffffffffffffffffff168573ffffffffffffffffffffffffffffffffffffffff1614611ce1576040517f08c379a0000000000000000000000000000000000000000000000000000000008152600401611cd890614919565b60405180910390fd5b60016000808773ffffffffffffffffffffffffffffffffffffffff1673ffffffffffffffffffffffffffffffffffffffff16815260200190815260200160002060000160009054906101000a900460ff1660ff1614611d75576040517f08c379a0000000000000000000000000000000000000000000000000000000008152600401611d6c906148f9565b60405180910390fd5b6060806006600181600181540180825580915050039060005260206000209050508585600660045481548110611dd4577f4e487b7100000000000000000000000000000000000000000000000000000000600052603260045260246000fd5b90600052602060002090600502016000019190611df29291906139a0565b508383600660045481548110611e31577f4e487b7100000000000000000000000000000000000000000000000000000000600052603260045260246000fd5b90600052602060002090600502016001019190611e4f9291906139a0565b5081600660045481548110611e8d577f4e487b7100000000000000000000000000000000000000000000000000000000600052603260045260246000fd5b90600052602060002090600502016002019080519060200190611eb1929190613a26565b5080600660045481548110611eef577f4e487b7100000000000000000000000000000000000000000000000000000000600052603260045260246000fd5b90600052602060002090600502016003019080519060200190611f13929190613ab0565b50600260008873ffffffffffffffffffffffffffffffffffffffff1673ffffffffffffffffffffffffffffffffffffffff168152602001908152602001600020600454908060018154018082558091505060019003906000526020600020016000909190919091505560046000815480929190611f8f90614ea9565b919050555050505050505050565b6000806000611fae88888888610edb565b80925081935050506000603c85611fc59190614bdc565b82611fd09190614c46565b8584611fdc9190614c46565b611fe69190614b48565b905080935050505095945050505050565b60608060068481548110612034577f4e487b7100000000000000000000000000000000000000000000000000000000600052603260045260246000fd5b9060005260206000209060050201600401838154811061207d577f4e487b7100000000000000000000000000000000000000000000000000000000600052603260045260246000fd5b9060005260206000209060060201600001600685815481106120c8577f4e487b7100000000000000000000000000000000000000000000000000000000600052603260045260246000fd5b90600052602060002090600502016004018481548110612111577f4e487b7100000000000000000000000000000000000000000000000000000000600052603260045260246000fd5b906000526020600020906006020160030181805480602002602001604051908101604052809291908181526020016000905b828210156121ef57838290600052602060002001805461216290614e77565b80601f016020809104026020016040519081016040528092919081815260200182805461218e90614e77565b80156121db5780601f106121b0576101008083540402835291602001916121db565b820191906000526020600020905b8154815290600101906020018083116121be57829003601f168201915b505050505081526020019060010190612143565b50505050915080805480602002602001604051908101604052809291908181526020016000905b828210156122c257838290600052602060002001805461223590614e77565b80601f016020809104026020016040519081016040528092919081815260200182805461226190614e77565b80156122ae5780601f10612283576101008083540402835291602001916122ae565b820191906000526020600020905b81548152906001019060200180831161229157829003601f168201915b505050505081526020019060010190612216565b505050509050915091509250929050565b60608060608060008060003373ffffffffffffffffffffffffffffffffffffffff1673ffffffffffffffffffffffffffffffffffffffff16815260200190815260200160002060000160009054906101000a900460ff1660ff1614156123c857600360003373ffffffffffffffffffffffffffffffffffffffff1673ffffffffffffffffffffffffffffffffffffffff1681526020019081526020016000208054806020026020016040519081016040528092919081815260200182805480156123bc57602002820191906000526020600020905b8154815260200190600101908083116123a8575b50505050509050612459565b600260003373ffffffffffffffffffffffffffffffffffffffff1673ffffffffffffffffffffffffffffffffffffffff16815260200190815260200160002080548060200260200160405190810160405280929190818152602001828054801561245157602002820191906000526020600020905b81548152602001906001019080831161243d575b505050505090505b6000815167ffffffffffffffff81111561249c577f4e487b7100000000000000000000000000000000000000000000000000000000600052604160045260246000fd5b6040519080825280602002602001820160405280156124cf57816020015b60608152602001906001900390816124ba5790505b5090506000825167ffffffffffffffff811115612515577f4e487b7100000000000000000000000000000000000000000000000000000000600052604160045260246000fd5b60405190808252806020026020018201604052801561254857816020015b60608152602001906001900390816125335790505b50905060005b83518110156128265760006006858381518110612594577f4e487b7100000000000000000000000000000000000000000000000000000000600052603260045260246000fd5b6020026020010151815481106125d3577f4e487b7100000000000000000000000000000000000000000000000000000000600052603260045260246000fd5b906000526020600020906005020160000180546125ef90614e77565b80601f016020809104026020016040519081016040528092919081815260200182805461261b90614e77565b80156126685780601f1061263d57610100808354040283529160200191612668565b820191906000526020600020905b81548152906001019060200180831161264b57829003601f168201915b50505050509050600060068684815181106126ac577f4e487b7100000000000000000000000000000000000000000000000000000000600052603260045260246000fd5b6020026020010151815481106126eb577f4e487b7100000000000000000000000000000000000000000000000000000000600052603260045260246000fd5b9060005260206000209060050201600101805461270790614e77565b80601f016020809104026020016040519081016040528092919081815260200182805461273390614e77565b80156127805780601f1061275557610100808354040283529160200191612780565b820191906000526020600020905b81548152906001019060200180831161276357829003601f168201915b50505050509050818584815181106127c1577f4e487b7100000000000000000000000000000000000000000000000000000000600052603260045260246000fd5b602002602001018190525080848481518110612806577f4e487b7100000000000000000000000000000000000000000000000000000000600052603260045260246000fd5b60200260200101819052505050808061281e90614ea9565b91505061254e565b50828282955095509550505050909192565b612840613afd565b3373ffffffffffffffffffffffffffffffffffffffff168273ffffffffffffffffffffffffffffffffffffffff16146128ae576040517f08c379a00000000000000000000000000000000000000000000000000000000081526004016128a590614919565b60405180910390fd5b6000808373ffffffffffffffffffffffffffffffffffffffff1673ffffffffffffffffffffffffffffffffffffffff1681526020019081526020016000206040518060800160405290816000820160009054906101000a900460ff1660ff1660ff16815260200160018201805461292490614e77565b80601f016020809104026020016040519081016040528092919081815260200182805461295090614e77565b801561299d5780601f106129725761010080835404028352916020019161299d565b820191906000526020600020905b81548152906001019060200180831161298057829003601f168201915b50505050508152602001600282015481526020016003820180546129c090614e77565b80601f01602080910402602001604051908101604052809291908181526020018280546129ec90614e77565b8015612a395780601f10612a0e57610100808354040283529160200191612a39565b820191906000526020600020905b815481529060010190602001808311612a1c57829003601f168201915b5050505050815250509050919050565b60008060003373ffffffffffffffffffffffffffffffffffffffff1673ffffffffffffffffffffffffffffffffffffffff16815260200190815260200160002060000160009054906101000a900460ff1660ff1614612add576040517f08c379a0000000000000000000000000000000000000000000000000000000008152600401612ad4906148b9565b60405180910390fd5b6000612ae98633611b10565b905060008760ff161415612dbd5760068681548110612b31577f4e487b7100000000000000000000000000000000000000000000000000000000600052603260045260246000fd5b90600052602060002090600502016004018181548110612b7a577f4e487b7100000000000000000000000000000000000000000000000000000000600052603260045260246000fd5b9060005260206000209060060201600001858590918060018154018082558091505060019003906000526020600020016000909192909192909192909192509190612bc69291906139a0565b5060068681548110612c01577f4e487b7100000000000000000000000000000000000000000000000000000000600052603260045260246000fd5b90600052602060002090600502016004018181548110612c4a577f4e487b7100000000000000000000000000000000000000000000000000000000600052603260045260246000fd5b906000526020600020906006020160010183908060018154018082558091505060019003906000526020600020016000909190919091505560068681548110612cbc577f4e487b7100000000000000000000000000000000000000000000000000000000600052603260045260246000fd5b90600052602060002090600502016004018181548110612d05577f4e487b7100000000000000000000000000000000000000000000000000000000600052603260045260246000fd5b90600052602060002090600602016002018290806001815401808255809150506001900390600052602060002001600090919091909150557fc006236e64ec6397c07de8a9ed93dcdd48105e6712425de3b2559d7f6ea8e48b6000803373ffffffffffffffffffffffffffffffffffffffff1673ffffffffffffffffffffffffffffffffffffffff1681526020019081526020016000206001018484604051612db09392919061487b565b60405180910390a161308c565b60018760ff16141561308b5760068681548110612e03577f4e487b7100000000000000000000000000000000000000000000000000000000600052603260045260246000fd5b90600052602060002090600502016004018181548110612e4c577f4e487b7100000000000000000000000000000000000000000000000000000000600052603260045260246000fd5b9060005260206000209060060201600301858590918060018154018082558091505060019003906000526020600020016000909192909192909192909192509190612e989291906139a0565b5060068681548110612ed3577f4e487b7100000000000000000000000000000000000000000000000000000000600052603260045260246000fd5b90600052602060002090600502016004018181548110612f1c577f4e487b7100000000000000000000000000000000000000000000000000000000600052603260045260246000fd5b906000526020600020906006020160040183908060018154018082558091505060019003906000526020600020016000909190919091505560068681548110612f8e577f4e487b7100000000000000000000000000000000000000000000000000000000600052603260045260246000fd5b90600052602060002090600502016004018181548110612fd7577f4e487b7100000000000000000000000000000000000000000000000000000000600052603260045260246000fd5b90600052602060002090600602016005018290806001815401808255809150506001900390600052602060002001600090919091909150557fbf84babda2bcc2b2ac0f647743c00b74f1bdc289282b0230244fdfcdba39ea196000803373ffffffffffffffffffffffffffffffffffffffff1673ffffffffffffffffffffffffffffffffffffffff16815260200190815260200160002060010184846040516130829392919061487b565b60405180910390a15b5b50505050505050565b61309d613b28565b600683815481106130d7577f4e487b7100000000000000000000000000000000000000000000000000000000600052603260045260246000fd5b90600052602060002090600502016004018281548110613120577f4e487b7100000000000000000000000000000000000000000000000000000000600052603260045260246000fd5b90600052602060002090600602016040518060c001604052908160008201805480602002602001604051908101604052809291908181526020016000905b8282101561320a57838290600052602060002001805461317d90614e77565b80601f01602080910402602001604051908101604052809291908181526020018280546131a990614e77565b80156131f65780601f106131cb576101008083540402835291602001916131f6565b820191906000526020600020905b8154815290600101906020018083116131d957829003601f168201915b50505050508152602001906001019061315e565b5050505081526020016001820180548060200260200160405190810160405280929190818152602001828054801561326157602002820191906000526020600020905b81548152602001906001019080831161324d575b50505050508152602001600282018054806020026020016040519081016040528092919081815260200182805480156132b957602002820191906000526020600020905b8154815260200190600101908083116132a5575b5050505050815260200160038201805480602002602001604051908101604052809291908181526020016000905b8282101561339357838290600052602060002001805461330690614e77565b80601f016020809104026020016040519081016040528092919081815260200182805461333290614e77565b801561337f5780601f106133545761010080835404028352916020019161337f565b820191906000526020600020905b81548152906001019060200180831161336257829003601f168201915b5050505050815260200190600101906132e7565b505050508152602001600482018054806020026020016040519081016040528092919081815260200182805480156133ea57602002820191906000526020600020905b8154815260200190600101908083116133d6575b505050505081526020016005820180548060200260200160405190810160405280929190818152602001828054801561344257602002820191906000526020600020905b81548152602001906001019080831161342e575b505050505081525050905092915050565b606080600060068481548110613492577f4e487b7100000000000000000000000000000000000000000000000000000000600052603260045260246000fd5b90600052602060002090600502016002018054905067ffffffffffffffff8111156134e6577f4e487b7100000000000000000000000000000000000000000000000000000000600052604160045260246000fd5b60405190808252806020026020018201604052801561351957816020015b60608152602001906001900390816135045790505b50905060005b60068581548110613559577f4e487b7100000000000000000000000000000000000000000000000000000000600052603260045260246000fd5b906000526020600020906005020160020180549050811015613749576000806000600688815481106135b4577f4e487b7100000000000000000000000000000000000000000000000000000000600052603260045260246000fd5b906000526020600020906005020160020184815481106135fd577f4e487b7100000000000000000000000000000000000000000000000000000000600052603260045260246000fd5b9060005260206000200160009054906101000a900473ffffffffffffffffffffffffffffffffffffffff1673ffffffffffffffffffffffffffffffffffffffff1673ffffffffffffffffffffffffffffffffffffffff168152602001908152602001600020600101805461367090614e77565b80601f016020809104026020016040519081016040528092919081815260200182805461369c90614e77565b80156136e95780601f106136be576101008083540402835291602001916136e9565b820191906000526020600020905b8154815290600101906020018083116136cc57829003601f168201915b505050505090508083838151811061372a577f4e487b7100000000000000000000000000000000000000000000000000000000600052603260045260246000fd5b602002602001018190525050808061374190614ea9565b91505061351f565b5060068481548110613784577f4e487b7100000000000000000000000000000000000000000000000000000000600052603260045260246000fd5b9060005260206000209060050201600201818180548060200260200160405190810160405280929190818152602001828054801561381757602002820191906000526020600020905b8160009054906101000a900473ffffffffffffffffffffffffffffffffffffffff1673ffffffffffffffffffffffffffffffffffffffff16815260200190600101908083116137cd575b505050505091509250925050915091565b60405180610100016040528060008152602001606081526020016060815260200160608152602001606081526020016060815260200160608152602001606081525090565b82805461387990614e77565b90600052602060002090601f01602090048101928261389b57600085556138e2565b82601f106138b457805160ff19168380011785556138e2565b828001600101855582156138e2579182015b828111156138e15782518255916020019190600101906138c6565b5b5090506138ef9190613b5e565b5090565b828054828255906000526020600020908101928215613942579160200282015b8281111561394157825182908051906020019061393192919061386d565b5091602001919060010190613913565b5b50905061394f9190613b7b565b5090565b82805482825590600052602060002090810192821561398f579160200282015b8281111561398e578251825591602001919060010190613973565b5b50905061399c9190613b9f565b5090565b8280546139ac90614e77565b90600052602060002090601f0160209004810192826139ce5760008555613a15565b82601f106139e757803560ff1916838001178555613a15565b82800160010185558215613a15579182015b82811115613a145782358255916020019190600101906139f9565b5b509050613a229190613b5e565b5090565b828054828255906000526020600020908101928215613a9f579160200282015b82811115613a9e5782518260006101000a81548173ffffffffffffffffffffffffffffffffffffffff021916908373ffffffffffffffffffffffffffffffffffffffff16021790555091602001919060010190613a46565b5b509050613aac9190613b5e565b5090565b828054828255906000526020600020908101928215613aec579160200282015b82811115613aeb578251825591602001919060010190613ad0565b5b509050613af99190613b5e565b5090565b6040518060800160405280600060ff1681526020016060815260200160008152602001606081525090565b6040518060c001604052806060815260200160608152602001606081526020016060815260200160608152602001606081525090565b5b80821115613b77576000816000905550600101613b5f565b5090565b5b80821115613b9b5760008181613b929190613bbc565b50600101613b7c565b5090565b5b80821115613bb8576000816000905550600101613ba0565b5090565b508054613bc890614e77565b6000825580601f10613bda5750613bf9565b601f016020900490600052602060002090810190613bf89190613b5e565b5b50565b600081359050613c0b81614f90565b92915050565b60008083601f840112613c2357600080fd5b8235905067ffffffffffffffff811115613c3c57600080fd5b602083019150836020820283011115613c5457600080fd5b9250929050565b600081359050613c6a81614fa7565b92915050565b60008083601f840112613c8257600080fd5b8235905067ffffffffffffffff811115613c9b57600080fd5b602083019150836001820283011115613cb357600080fd5b9250929050565b600081359050613cc981614fbe565b92915050565b600081359050613cde81614fd5565b92915050565b600060208284031215613cf657600080fd5b6000613d0484828501613bfc565b91505092915050565b600080600080600060608688031215613d2557600080fd5b6000613d3388828901613bfc565b955050602086013567ffffffffffffffff811115613d5057600080fd5b613d5c88828901613c70565b9450945050604086013567ffffffffffffffff811115613d7b57600080fd5b613d8788828901613c70565b92509250509295509295909350565b600080600080600080600060a0888a031215613db157600080fd5b6000613dbf8a828b01613bfc565b9750506020613dd08a828b01613ccf565b965050604088013567ffffffffffffffff811115613ded57600080fd5b613df98a828b01613c70565b95509550506060613e0c8a828b01613cba565b935050608088013567ffffffffffffffff811115613e2957600080fd5b613e358a828b01613c70565b925092505092959891949750929550565b60008060008060608587031215613e5c57600080fd5b600085013567ffffffffffffffff811115613e7657600080fd5b613e8287828801613c11565b94509450506020613e9587828801613bfc565b9250506040613ea687828801613cba565b91505092959194509250565b600060208284031215613ec457600080fd5b6000613ed284828501613cba565b91505092915050565b60008060408385031215613eee57600080fd5b6000613efc85828601613cba565b9250506020613f0d85828601613bfc565b9150509250929050565b60008060408385031215613f2a57600080fd5b6000613f3885828601613cba565b9250506020613f4985828601613cba565b9150509250929050565b60008060008060808587031215613f6957600080fd5b6000613f7787828801613cba565b9450506020613f8887828801613cba565b9350506040613f9987828801613cba565b9250506060613faa87828801613cba565b91505092959194509250565b600080600080600060a08688031215613fce57600080fd5b6000613fdc88828901613cba565b9550506020613fed88828901613cba565b9450506040613ffe88828901613cba565b935050606061400f88828901613cba565b925050608061402088828901613c5b565b9150509295509295909350565b60008060008060008060a0878903121561404657600080fd5b600061405489828a01613ccf565b965050602061406589828a01613cba565b955050604087013567ffffffffffffffff81111561408257600080fd5b61408e89828a01613c70565b945094505060606140a189828a01613c5b565b92505060806140b289828a01613c5b565b9150509295509295509295565b60006140cb838361411b565b60208301905092915050565b60006140e3838361432e565b60208301905092915050565b60006140fb838361434c565b905092915050565b600061410f838361472e565b60208301905092915050565b61412481614df1565b82525050565b600061413582614a66565b61413f8185614ad1565b935061414a83614a11565b8060005b8381101561417b57815161416288826140bf565b975061416d83614a9d565b92505060018101905061414e565b5085935050505092915050565b600061419382614a71565b61419d8185614ae2565b93506141a883614a21565b8060005b838110156141d95781516141c088826140d7565b97506141cb83614aaa565b9250506001810190506141ac565b5085935050505092915050565b60006141f182614a7c565b6141fb8185614af3565b93508360208202850161420d85614a31565b8060005b85811015614249578484038952815161422a85826140ef565b945061423583614ab7565b925060208a01995050600181019050614211565b50829750879550505050505092915050565b600061426682614a7c565b6142708185614b04565b93508360208202850161428285614a31565b8060005b858110156142be578484038952815161429f85826140ef565b94506142aa83614ab7565b925060208a01995050600181019050614286565b50829750879550505050505092915050565b60006142db82614a87565b6142e58185614b15565b93506142f083614a41565b8060005b838110156143215781516143088882614103565b975061431383614ac4565b9250506001810190506142f4565b5085935050505092915050565b61433781614e03565b82525050565b61434681614e03565b82525050565b600061435782614a92565b6143618185614b26565b9350614371818560208601614e44565b61437a81614f7f565b840191505092915050565b600061439082614a92565b61439a8185614b37565b93506143aa818560208601614e44565b6143b381614f7f565b840191505092915050565b600081546143cb81614e77565b6143d58186614b37565b945060018216600081146143f0576001811461440257614435565b60ff1983168652602086019350614435565b61440b85614a51565b60005b8381101561442d5781548189015260018201915060208101905061440e565b808801955050505b50505092915050565b600061444b601483614b37565b91507f796f7520617265206e6f7420656d706c6f7965650000000000000000000000006000830152602082019050919050565b600061448b601283614b37565b91507f796f7572206e6f7420656d706c6f7965652100000000000000000000000000006000830152602082019050919050565b60006144cb601283614b37565b91507f796f7572206e6f7420656d706c6f7965722100000000000000000000000000006000830152602082019050919050565b600061450b601483614b37565b91507f796f7572206e6f74206d73672e73656e646572210000000000000000000000006000830152602082019050919050565b600060c083016000830151848203600086015261455b82826141e6565b915050602083015184820360208601526145758282614188565b9150506040830151848203604086015261458f8282614188565b915050606083015184820360608601526145a982826141e6565b915050608083015184820360808601526145c38282614188565b91505060a083015184820360a08601526145dd8282614188565b9150508091505092915050565b600061010083016000830151614603600086018261472e565b506020830151848203602086015261461b828261434c565b91505060408301518482036040860152614635828261434c565b9150506060830151848203606086015261464f828261434c565b91505060808301518482036080860152614669828261434c565b91505060a083015184820360a0860152614683828261434c565b91505060c083015184820360c086015261469d828261434c565b91505060e083015184820360e08601526146b7828261434c565b9150508091505092915050565b60006080830160008301516146dc600086018261474c565b50602083015184820360208601526146f4828261434c565b9150506040830151614709604086018261472e565b5060608301518482036060860152614721828261434c565b9150508091505092915050565b61473781614e2d565b82525050565b61474681614e2d565b82525050565b61475581614e37565b82525050565b60006040820190508181036000830152614775818561412a565b90508181036020830152614789818461425b565b90509392505050565b600060408201905081810360008301526147ac818561425b565b905081810360208301526147c0818461425b565b90509392505050565b600060608201905081810360008301526147e381866142d0565b905081810360208301526147f7818561425b565b9050818103604083015261480b818461425b565b9050949350505050565b600060208201905061482a600083018461433d565b92915050565b6000604082019050614845600083018561433d565b614852602083018461433d565b9392505050565b600060208201905081810360008301526148738184614385565b905092915050565b6000606082019050818103600083015261489581866143be565b90506148a4602083018561433d565b6148b1604083018461433d565b949350505050565b600060208201905081810360008301526148d28161443e565b9050919050565b600060208201905081810360008301526148f28161447e565b9050919050565b60006020820190508181036000830152614912816144be565b9050919050565b60006020820190508181036000830152614932816144fe565b9050919050565b60006020820190508181036000830152614953818461453e565b905092915050565b6000602082019050818103600083015261497581846145ea565b905092915050565b6000602082019050818103600083015261499781846146c4565b905092915050565b60006020820190506149b4600083018461473d565b92915050565b600080833560016020038436030381126149d357600080fd5b80840192508235915067ffffffffffffffff8211156149f157600080fd5b602083019250600182023603831315614a0957600080fd5b509250929050565b6000819050602082019050919050565b6000819050602082019050919050565b6000819050602082019050919050565b6000819050602082019050919050565b60008190508160005260206000209050919050565b600081519050919050565b600081519050919050565b600081519050919050565b600081519050919050565b600081519050919050565b6000602082019050919050565b6000602082019050919050565b6000602082019050919050565b6000602082019050919050565b600082825260208201905092915050565b600082825260208201905092915050565b600082825260208201905092915050565b600082825260208201905092915050565b600082825260208201905092915050565b600082825260208201905092915050565b600082825260208201905092915050565b6000614b5382614e03565b9150614b5e83614e03565b9250817f7fffffffffffffffffffffffffffffffffffffffffffffffffffffffffffffff03831360008312151615614b9957614b98614ef2565b5b817f8000000000000000000000000000000000000000000000000000000000000000038312600083121615614bd157614bd0614ef2565b5b828201905092915050565b6000614be782614e03565b9150614bf283614e03565b925082614c0257614c01614f21565b5b600160000383147f800000000000000000000000000000000000000000000000000000000000000083141615614c3b57614c3a614ef2565b5b828205905092915050565b6000614c5182614e03565b9150614c5c83614e03565b9250827f7fffffffffffffffffffffffffffffffffffffffffffffffffffffffffffffff0482116000841360008413161615614c9b57614c9a614ef2565b5b817f80000000000000000000000000000000000000000000000000000000000000000583126000841260008413161615614cd857614cd7614ef2565b5b827f80000000000000000000000000000000000000000000000000000000000000000582126000841360008412161615614d1557614d14614ef2565b5b827f7fffffffffffffffffffffffffffffffffffffffffffffffffffffffffffffff0582126000841260008412161615614d5257614d51614ef2565b5b828202905092915050565b6000614d6882614e03565b9150614d7383614e03565b9250827f800000000000000000000000000000000000000000000000000000000000000001821260008412151615614dae57614dad614ef2565b5b827f7fffffffffffffffffffffffffffffffffffffffffffffffffffffffffffffff018213600084121615614de657614de5614ef2565b5b828203905092915050565b6000614dfc82614e0d565b9050919050565b6000819050919050565b600073ffffffffffffffffffffffffffffffffffffffff82169050919050565b6000819050919050565b600060ff82169050919050565b60005b83811015614e62578082015181840152602081019050614e47565b83811115614e71576000848401525b50505050565b60006002820490506001821680614e8f57607f821691505b60208210811415614ea357614ea2614f50565b5b50919050565b6000614eb482614e2d565b91507fffffffffffffffffffffffffffffffffffffffffffffffffffffffffffffffff821415614ee757614ee6614ef2565b5b600182019050919050565b7f4e487b7100000000000000000000000000000000000000000000000000000000600052601160045260246000fd5b7f4e487b7100000000000000000000000000000000000000000000000000000000600052601260045260246000fd5b7f4e487b7100000000000000000000000000000000000000000000000000000000600052602260045260246000fd5b6000601f19601f8301169050919050565b614f9981614df1565b8114614fa457600080fd5b50565b614fb081614e03565b8114614fbb57600080fd5b50565b614fc781614e2d565b8114614fd257600080fd5b50565b614fde81614e37565b8114614fe957600080fd5b5056fea2646970667358221220a4c6d862fb6663d5e280335086a9467b7150c32037594da8a760cc5fc799317564736f6c63430008000033",
  "immutableReferences": {},
  "source": "// SPDX-License-Identifier: MIT\r\npragma solidity ^0.8.0;\r\n\r\ncontract LaborContract {\r\n  \r\n  //   mapping\r\n  mapping(address => personalInfo) private _person;\r\n\r\n  //    index mapping\r\n  mapping(address => uint256 []) private _employeeLaborContractList;\r\n\r\n  //    index mapping\r\n  mapping(address => uint256 []) private _employerWorkplaceList;\r\n\r\n  //    index mapping\r\n  mapping(address => uint256 []) private _employeeWorkplaceList;\r\n\r\n  //  index  \r\n  uint private _workplaceIndex = 0;\r\n  \r\n  //  index  \r\n  uint private _laborContractIndex = 0;\r\n  \r\n  //  \r\n  // identiNumber : 0 =>  1 => \r\n  struct personalInfo {\r\n    uint8 identiNumber;\r\n    string name;\r\n    uint age;\r\n    string gender;\r\n  }\r\n\r\n  //  \r\n  // employee attendance, laborContractIndex index   ->   index \r\n  struct workplaceInfo {\r\n    string name;\r\n    string location;\r\n    address [] employee;\r\n    uint [] laborContractIndex;\r\n    attendance [] attendanceList;\r\n  }\r\n\r\n  //  \r\n  struct attendance {\r\n    string [] startDay;\r\n    int [] startTimeHour;\r\n    int [] startTimeMinute;\r\n    string [] endDay;\r\n    int [] endTimeHour;\r\n    int [] endTimeMinute;\r\n  }\r\n\r\n  //  \r\n  struct laborContract {\r\n    uint workplaceIndex;      //  index\r\n    string peroid;            //  \r\n    string duties;            // \r\n    string workingTime;       // \r\n    string workingDays;       // \r\n    string wage;              // ()\r\n    string wageday;           // \r\n    string comment;           // \r\n  }\r\n  \r\n  // struct  \r\n  workplaceInfo [] private workplaceinfo;\r\n  laborContract [] private laborcontract;\r\n\r\n  // event \r\n  event Onwork(string name, int timeHour, int timeMinute);\r\n  event Offwork(string name, int timeHour, int timeMinute);\r\n\r\n  //////////////////////////////////////////////////////////////////////////////////////////////////////\r\n  //////////////////////////////////////////////////////////////////////////////////////////////////////\r\n  //////////////////////////////////////////////////////////////////////////////////////////////////////\r\n\r\n  //     \r\n  function getPersonInformation (address person) public view \r\n  returns (personalInfo memory){\r\n\r\n    require(person == msg.sender, \"your not msg.sender!\");\r\n\r\n    return (_person[person]);\r\n\r\n  }\r\n\r\n  //      return \r\n  function getEmployeeInfo (uint workplaceInfoIndex) public view \r\n  returns (address [] memory, string [] memory) {\r\n    \r\n    //      \r\n    string [] memory nameList = new string[](workplaceinfo[workplaceInfoIndex].employee.length);\r\n    \r\n    // employee address  ,  name \r\n    for (uint x = 0; x < workplaceinfo[workplaceInfoIndex].employee.length ; x++) {\r\n      string memory name = _person[workplaceinfo[workplaceInfoIndex].employee[x]].name;\r\n      nameList[x] = name;\r\n    }\r\n\r\n    // address name return\r\n    return (\r\n      workplaceinfo[workplaceInfoIndex].employee,\r\n      nameList\r\n    );\r\n  }\r\n\r\n  //     return \r\n  function getNumOfEmployee (uint workplaceInfoIndex) public view returns (uint){\r\n    return (workplaceinfo[workplaceInfoIndex].employee.length);\r\n  }\r\n\r\n  //   index return \r\n  function getIndexOfEmployee (uint workplaceInfoIndex, address employeeAddress) public view returns (uint) {\r\n    \r\n    uint index;\r\n\r\n    // msg.sender     address   index return\r\n    for (uint x = 0; x < workplaceinfo[workplaceInfoIndex].employee.length ; x++) {\r\n      if(employeeAddress == workplaceinfo[workplaceInfoIndex].employee[x]){\r\n        index = x;\r\n        break;\r\n      }\r\n    }\r\n\r\n    return index;\r\n  }\r\n\r\n  //   &    \r\n  function getWorkplaces () public view \r\n  returns (uint [] memory, string [] memory, string [] memory){\r\n    \r\n    uint [] memory array;\r\n\r\n    // identiNumber = 0 =>  1 => \r\n    // 0 -> array mapping _employeeWorkplaceList    index \r\n    // 1 -> array mapping _employerWorkplaceList    index \r\n    \r\n    if (_person[msg.sender].identiNumber == 0) array = _employeeWorkplaceList[msg.sender];\r\n    else array = _employerWorkplaceList[msg.sender];\r\n\r\n    string [] memory nameList = new string[](array.length);\r\n    string [] memory locationList = new string[](array.length);\r\n\r\n    for (uint x = 0; x < array.length ; x++) {\r\n      string memory name = workplaceinfo[array[x]].name;\r\n      string memory location = workplaceinfo[array[x]].location;\r\n\r\n      nameList[x] = name;\r\n      locationList[x] = location;\r\n    }\r\n\r\n    //  index list, name list, location list return\r\n    return (array, nameList, locationList);\r\n\r\n  }\r\n\r\n  //    &      \r\n  function getLaborContract (uint workplaceInfoIndex, address employeeAddress) public view \r\n  returns(laborContract memory) {\r\n\r\n    uint laborContractIndex;\r\n    uint tempIndex;\r\n\r\n    // identiNumber : 0 =>  1 => \r\n    // mapping _employeeLaborContractList   workplaceIndex  \r\n    if (_person[msg.sender].identiNumber == 0) {\r\n\r\n      for (uint x = 0 ; x < _employeeLaborContractList[msg.sender].length ; x++) {\r\n\r\n        if (laborcontract[_employeeLaborContractList[msg.sender][x]].workplaceIndex == workplaceInfoIndex) {\r\n          tempIndex = x;\r\n          break;\r\n        }\r\n\r\n      }\r\n      \r\n      laborContractIndex = _employeeLaborContractList[msg.sender][tempIndex];\r\n    }\r\n    // workplace index \r\n    else {\r\n      tempIndex = getIndexOfEmployee(workplaceInfoIndex, employeeAddress);\r\n      laborContractIndex = workplaceinfo[workplaceInfoIndex].laborContractIndex[tempIndex];\r\n    }\r\n\r\n    return (laborcontract[laborContractIndex]);\r\n\r\n  }\r\n\r\n  //    or     return\r\n  function getWage (uint workplaceInfoIndex, uint employeeIndex) public view \r\n  returns (string memory) {\r\n    return(laborcontract[workplaceinfo[workplaceInfoIndex].laborContractIndex[employeeIndex]].wage);\r\n  }\r\n\r\n  //    or    ,   return \r\n  function getCalAttendance (uint workplaceInfoIndex, uint employeeIndex) public view \r\n  returns (string [] memory, string [] memory){\r\n\r\n    return(\r\n      workplaceinfo[workplaceInfoIndex].attendanceList[employeeIndex].startDay,\r\n      workplaceinfo[workplaceInfoIndex].attendanceList[employeeIndex].endDay\r\n    );\r\n\r\n  }\r\n\r\n  //    or       return \r\n  function getAllAttendance (uint workplaceInfoIndex, uint employeeIndex) public view \r\n  returns (attendance memory){\r\n    return (workplaceinfo[workplaceInfoIndex].attendanceList[employeeIndex]);\r\n  }\r\n\r\n  //      return \r\n  // hour(), minute()     ->       \r\n  // ,   getCalAttendance  string            .\r\n  function getWorkTime (uint workplaceInfoIndex, uint employeeIndex, uint startIndex, uint endIndex) public view \r\n  returns (int, int) {\r\n\r\n    int Allhour = 0;\r\n    int Allminute = 0;\r\n\r\n    int hour;\r\n    int minute;\r\n\r\n    for (uint x = startIndex ; x <= endIndex ; x++) {\r\n      \r\n      hour = workplaceinfo[workplaceInfoIndex].attendanceList[employeeIndex].endTimeHour[x] \r\n      - workplaceinfo[workplaceInfoIndex].attendanceList[employeeIndex].startTimeHour[x];\r\n\r\n      minute = workplaceinfo[workplaceInfoIndex].attendanceList[employeeIndex].endTimeMinute[x] \r\n      - workplaceinfo[workplaceInfoIndex].attendanceList[employeeIndex].startTimeMinute[x];\r\n\r\n      if (hour < 0) hour = hour + 24;\r\n      if (minute < 0) minute = minute + 60;\r\n\r\n      Allhour += hour;\r\n      Allminute += minute;\r\n    }\r\n\r\n    return (Allhour, Allminute);\r\n\r\n  }\r\n\r\n  //   \r\n  // wage  getWage  string to int    \r\n  function getPayment (uint workplaceInfoIndex, uint employeeIndex, uint startIndex, uint endIndex, int wage) public view \r\n  returns (int) {\r\n\r\n    int Allhour;\r\n    int Allminute;\r\n\r\n    (Allhour, Allminute) = getWorkTime(workplaceInfoIndex, employeeIndex, startIndex, endIndex);\r\n\r\n    int Allwage = (Allhour * wage) + (Allminute * (wage / 60));\r\n\r\n    return (Allwage);\r\n  }\r\n\r\n\r\n  //////////////////////////////////////////////////////////////////////////////////////////////////////\r\n  //////////////////////////////////////////////////////////////////////////////////////////////////////\r\n  //////////////////////////////////////////////////////////////////////////////////////////////////////\r\n\r\n\r\n  //    \r\n  function uploadPersonalInfo(address person, uint8 identiNumber, string calldata name, uint age, string calldata gender) public {\r\n\r\n    require(person == msg.sender, \"your not msg.sender!\");\r\n\r\n    personalInfo storage newPersonalInfo = _person[person];\r\n\r\n    newPersonalInfo.identiNumber = identiNumber;\r\n    newPersonalInfo.name = name;\r\n    newPersonalInfo.age = age;\r\n    newPersonalInfo.gender = gender;\r\n\r\n  }\r\n  \r\n  //    \r\n  function uploadWorkplace(address employerAddress, string calldata workplaceName, string calldata location) public {\r\n\r\n    require(employerAddress == msg.sender, \"your not msg.sender!\");\r\n    require(_person[employerAddress].identiNumber == 1, \"your not employer!\");\r\n    \r\n    address [] memory employee;\r\n    uint [] memory laborContractIndex;\r\n\r\n    workplaceinfo.push();\r\n    workplaceinfo[_workplaceIndex].name = workplaceName;\r\n    workplaceinfo[_workplaceIndex].location = location;\r\n    workplaceinfo[_workplaceIndex].employee = employee;\r\n    workplaceinfo[_workplaceIndex].laborContractIndex = laborContractIndex;\r\n\r\n    // _employerWorkplaceList mapping  index \r\n    _employerWorkplaceList[employerAddress].push(_workplaceIndex);\r\n\r\n    //  index \r\n    _workplaceIndex++;\r\n  }\r\n\r\n  //   \r\n  function uploadLaborContract(string [] calldata laborContractItems, address employeeAddress, uint workplaceInfoIndex) public {\r\n\r\n    require(employeeAddress == msg.sender, \"your not msg.sender!\");\r\n    require(_person[employeeAddress].identiNumber == 0, \"your not employee!\");\r\n\r\n    laborContract memory newLabor;\r\n\r\n    newLabor.workplaceIndex = workplaceInfoIndex;\r\n    newLabor.peroid = laborContractItems[0];\r\n    newLabor.duties = laborContractItems[1];\r\n    newLabor.workingTime = laborContractItems[2];\r\n    newLabor.workingDays = laborContractItems[3];\r\n    newLabor.wage = laborContractItems[4];\r\n    newLabor.wageday = laborContractItems[5];\r\n    newLabor.comment =  laborContractItems[6];\r\n\r\n    laborcontract.push(newLabor);\r\n\r\n    // _employeeLaborContractList mapping  index \r\n    // _employeeWorkplaceList mapping  index \r\n    _employeeLaborContractList[employeeAddress].push(_laborContractIndex);\r\n    _employeeWorkplaceList[employeeAddress].push(workplaceInfoIndex);\r\n\r\n    // workplace  \r\n    workplaceinfo[workplaceInfoIndex].employee.push(employeeAddress);\r\n    \r\n    // workspace  index \r\n    workplaceinfo[workplaceInfoIndex].laborContractIndex.push(_laborContractIndex);\r\n\r\n    string [] memory startDay;\r\n    int [] memory startTimeHour;\r\n    int [] memory startTimeMinute;\r\n    string [] memory endDay;\r\n    int [] memory endTimeHour;\r\n    int [] memory endTimeMinute;\r\n\r\n    attendance memory newAttendance = attendance(startDay, startTimeHour, startTimeMinute, endDay, endTimeHour, endTimeMinute);\r\n\r\n    //      \r\n    workplaceinfo[workplaceInfoIndex].attendanceList.push(newAttendance);\r\n\r\n    //  index \r\n    _laborContractIndex++;\r\n\r\n  }\r\n\r\n  //   \r\n  // classifyNum : 0 ->  / 1 -> \r\n  function uploadAttendance (uint8 classifyNum, uint workPlaceInfoIndex,\r\n  string calldata day, int timeHour, int timeMinute) public {\r\n\r\n    require(_person[msg.sender].identiNumber == 0, \"you are not employee\");\r\n\r\n    uint employeeIndex = getIndexOfEmployee(workPlaceInfoIndex, msg.sender);\r\n\r\n    // \r\n    if (classifyNum == 0) {\r\n\r\n      workplaceinfo[workPlaceInfoIndex].attendanceList[employeeIndex].startDay.push(day);\r\n      workplaceinfo[workPlaceInfoIndex].attendanceList[employeeIndex].startTimeHour.push(timeHour);\r\n      workplaceinfo[workPlaceInfoIndex].attendanceList[employeeIndex].startTimeMinute.push(timeMinute);\r\n\r\n      emit Onwork(_person[msg.sender].name, timeHour, timeMinute);\r\n    \r\n    // \r\n    } else if (classifyNum == 1){\r\n\r\n      workplaceinfo[workPlaceInfoIndex].attendanceList[employeeIndex].endDay.push(day);\r\n      workplaceinfo[workPlaceInfoIndex].attendanceList[employeeIndex].endTimeHour.push(timeHour);\r\n      workplaceinfo[workPlaceInfoIndex].attendanceList[employeeIndex].endTimeMinute.push(timeMinute);\r\n\r\n      emit Offwork(_person[msg.sender].name, timeHour, timeMinute);\r\n\r\n    }\r\n\r\n  }\r\n\r\n} ",
  "sourcePath": "D:\\GitHub\\blockchain_management_employee\\employerWeb\\contracts\\LaborContract.sol",
  "compiler": {
    "name": "solc",
    "version": "0.8.0+commit.c7dfd78e.Emscripten.clang"
  },
  "schemaVersion": "3.4.4",
  "updatedAt": "2022-03-06T13:10:34.512Z",
  "networkType": "ethereum",
  "devdoc": {
    "kind": "dev",
    "methods": {},
    "version": 1
  },
  "userdoc": {
    "kind": "user",
    "methods": {},
    "version": 1
  }
}