{
  "contractName": "LaborContract",
  "abi": [
    {
      "anonymous": false,
      "inputs": [
        {
          "indexed": false,
          "internalType": "string",
          "name": "name",
          "type": "string"
        },
        {
          "indexed": false,
          "internalType": "int256",
          "name": "timeHour",
          "type": "int256"
        },
        {
          "indexed": false,
          "internalType": "int256",
          "name": "timeMinute",
          "type": "int256"
        }
      ],
      "name": "Offwork",
      "type": "event"
    },
    {
      "anonymous": false,
      "inputs": [
        {
          "indexed": false,
          "internalType": "string",
          "name": "name",
          "type": "string"
        },
        {
          "indexed": false,
          "internalType": "int256",
          "name": "timeHour",
          "type": "int256"
        },
        {
          "indexed": false,
          "internalType": "int256",
          "name": "timeMinute",
          "type": "int256"
        }
      ],
      "name": "Onwork",
      "type": "event"
    },
    {
      "inputs": [
        {
          "internalType": "address",
          "name": "person",
          "type": "address"
        }
      ],
      "name": "getPersonInformation",
      "outputs": [
        {
          "components": [
            {
              "internalType": "uint8",
              "name": "identiNumber",
              "type": "uint8"
            },
            {
              "internalType": "string",
              "name": "name",
              "type": "string"
            },
            {
              "internalType": "uint256",
              "name": "age",
              "type": "uint256"
            },
            {
              "internalType": "string",
              "name": "gender",
              "type": "string"
            },
            {
              "components": [
                {
                  "internalType": "uint256[]",
                  "name": "index",
                  "type": "uint256[]"
                },
                {
                  "internalType": "string[]",
                  "name": "startDay",
                  "type": "string[]"
                },
                {
                  "internalType": "string[]",
                  "name": "endDay",
                  "type": "string[]"
                }
              ],
              "internalType": "struct LaborContract.careerst",
              "name": "career",
              "type": "tuple"
            }
          ],
          "internalType": "struct LaborContract.personalInfo",
          "name": "",
          "type": "tuple"
        }
      ],
      "stateMutability": "view",
      "type": "function",
      "constant": true
    },
    {
      "inputs": [
        {
          "internalType": "uint256",
          "name": "wpindex",
          "type": "uint256"
        }
      ],
      "name": "getEmployeeInfo",
      "outputs": [
        {
          "internalType": "address[]",
          "name": "",
          "type": "address[]"
        },
        {
          "internalType": "string[]",
          "name": "",
          "type": "string[]"
        }
      ],
      "stateMutability": "view",
      "type": "function",
      "constant": true
    },
    {
      "inputs": [
        {
          "internalType": "uint256",
          "name": "wpindex",
          "type": "uint256"
        },
        {
          "internalType": "address",
          "name": "employeeAddress",
          "type": "address"
        }
      ],
      "name": "getIndexOfEmployee",
      "outputs": [
        {
          "internalType": "uint256",
          "name": "",
          "type": "uint256"
        }
      ],
      "stateMutability": "view",
      "type": "function",
      "constant": true
    },
    {
      "inputs": [],
      "name": "getWorkplaces",
      "outputs": [
        {
          "internalType": "uint256[]",
          "name": "",
          "type": "uint256[]"
        },
        {
          "internalType": "string[]",
          "name": "",
          "type": "string[]"
        },
        {
          "internalType": "string[]",
          "name": "",
          "type": "string[]"
        }
      ],
      "stateMutability": "view",
      "type": "function",
      "constant": true
    },
    {
      "inputs": [
        {
          "internalType": "uint256",
          "name": "wpindex",
          "type": "uint256"
        }
      ],
      "name": "getWorkplcesInfo",
      "outputs": [
        {
          "internalType": "string",
          "name": "",
          "type": "string"
        },
        {
          "internalType": "string",
          "name": "",
          "type": "string"
        }
      ],
      "stateMutability": "view",
      "type": "function",
      "constant": true
    },
    {
      "inputs": [
        {
          "internalType": "uint256",
          "name": "wpindex",
          "type": "uint256"
        },
        {
          "internalType": "address",
          "name": "employeeAddress",
          "type": "address"
        }
      ],
      "name": "getLaborContract",
      "outputs": [
        {
          "components": [
            {
              "internalType": "uint256",
              "name": "workplaceIndex",
              "type": "uint256"
            },
            {
              "internalType": "string",
              "name": "peroid",
              "type": "string"
            },
            {
              "internalType": "string",
              "name": "duties",
              "type": "string"
            },
            {
              "internalType": "string",
              "name": "workingTime",
              "type": "string"
            },
            {
              "internalType": "string",
              "name": "workingDays",
              "type": "string"
            },
            {
              "internalType": "string",
              "name": "wage",
              "type": "string"
            },
            {
              "internalType": "string",
              "name": "wageday",
              "type": "string"
            },
            {
              "internalType": "string",
              "name": "comment",
              "type": "string"
            }
          ],
          "internalType": "struct LaborContract.laborContract",
          "name": "",
          "type": "tuple"
        }
      ],
      "stateMutability": "view",
      "type": "function",
      "constant": true
    },
    {
      "inputs": [
        {
          "internalType": "uint256",
          "name": "lbindex",
          "type": "uint256"
        }
      ],
      "name": "getLaborContract2",
      "outputs": [
        {
          "components": [
            {
              "internalType": "uint256",
              "name": "workplaceIndex",
              "type": "uint256"
            },
            {
              "internalType": "string",
              "name": "peroid",
              "type": "string"
            },
            {
              "internalType": "string",
              "name": "duties",
              "type": "string"
            },
            {
              "internalType": "string",
              "name": "workingTime",
              "type": "string"
            },
            {
              "internalType": "string",
              "name": "workingDays",
              "type": "string"
            },
            {
              "internalType": "string",
              "name": "wage",
              "type": "string"
            },
            {
              "internalType": "string",
              "name": "wageday",
              "type": "string"
            },
            {
              "internalType": "string",
              "name": "comment",
              "type": "string"
            }
          ],
          "internalType": "struct LaborContract.laborContract",
          "name": "",
          "type": "tuple"
        }
      ],
      "stateMutability": "view",
      "type": "function",
      "constant": true
    },
    {
      "inputs": [
        {
          "internalType": "address",
          "name": "employeeAddress",
          "type": "address"
        }
      ],
      "name": "getAllLaborContract",
      "outputs": [
        {
          "internalType": "uint256[]",
          "name": "",
          "type": "uint256[]"
        }
      ],
      "stateMutability": "view",
      "type": "function",
      "constant": true
    },
    {
      "inputs": [
        {
          "internalType": "uint256",
          "name": "wpindex",
          "type": "uint256"
        },
        {
          "internalType": "uint256",
          "name": "employeeIndex",
          "type": "uint256"
        }
      ],
      "name": "getWage",
      "outputs": [
        {
          "internalType": "string",
          "name": "",
          "type": "string"
        }
      ],
      "stateMutability": "view",
      "type": "function",
      "constant": true
    },
    {
      "inputs": [
        {
          "internalType": "uint256",
          "name": "wpindex",
          "type": "uint256"
        },
        {
          "internalType": "uint256",
          "name": "employeeIndex",
          "type": "uint256"
        }
      ],
      "name": "getCalAttendance",
      "outputs": [
        {
          "internalType": "string[]",
          "name": "",
          "type": "string[]"
        },
        {
          "internalType": "string[]",
          "name": "",
          "type": "string[]"
        }
      ],
      "stateMutability": "view",
      "type": "function",
      "constant": true
    },
    {
      "inputs": [
        {
          "internalType": "uint256",
          "name": "wpindex",
          "type": "uint256"
        },
        {
          "internalType": "uint256",
          "name": "employeeIndex",
          "type": "uint256"
        }
      ],
      "name": "getAllAttendance",
      "outputs": [
        {
          "components": [
            {
              "internalType": "string[]",
              "name": "startDay",
              "type": "string[]"
            },
            {
              "internalType": "int256[]",
              "name": "startHour",
              "type": "int256[]"
            },
            {
              "internalType": "int256[]",
              "name": "startMinute",
              "type": "int256[]"
            },
            {
              "internalType": "string[]",
              "name": "endDay",
              "type": "string[]"
            },
            {
              "internalType": "int256[]",
              "name": "endHour",
              "type": "int256[]"
            },
            {
              "internalType": "int256[]",
              "name": "endMinute",
              "type": "int256[]"
            }
          ],
          "internalType": "struct LaborContract.attendance",
          "name": "",
          "type": "tuple"
        }
      ],
      "stateMutability": "view",
      "type": "function",
      "constant": true
    },
    {
      "inputs": [
        {
          "internalType": "uint256",
          "name": "wpindex",
          "type": "uint256"
        },
        {
          "internalType": "uint256",
          "name": "employeeIndex",
          "type": "uint256"
        },
        {
          "internalType": "uint256",
          "name": "startIndex",
          "type": "uint256"
        },
        {
          "internalType": "uint256",
          "name": "endIndex",
          "type": "uint256"
        }
      ],
      "name": "getWorkTime",
      "outputs": [
        {
          "internalType": "int256",
          "name": "",
          "type": "int256"
        },
        {
          "internalType": "int256",
          "name": "",
          "type": "int256"
        }
      ],
      "stateMutability": "view",
      "type": "function",
      "constant": true
    },
    {
      "inputs": [
        {
          "internalType": "uint256",
          "name": "wpindex",
          "type": "uint256"
        },
        {
          "internalType": "uint256",
          "name": "employeeIndex",
          "type": "uint256"
        },
        {
          "internalType": "uint256",
          "name": "startIndex",
          "type": "uint256"
        },
        {
          "internalType": "uint256",
          "name": "endIndex",
          "type": "uint256"
        },
        {
          "internalType": "int256",
          "name": "wage",
          "type": "int256"
        }
      ],
      "name": "getPayment",
      "outputs": [
        {
          "internalType": "int256",
          "name": "",
          "type": "int256"
        }
      ],
      "stateMutability": "view",
      "type": "function",
      "constant": true
    },
    {
      "inputs": [
        {
          "internalType": "address",
          "name": "person",
          "type": "address"
        },
        {
          "internalType": "uint8",
          "name": "identiNumber",
          "type": "uint8"
        },
        {
          "internalType": "string",
          "name": "name",
          "type": "string"
        },
        {
          "internalType": "uint256",
          "name": "age",
          "type": "uint256"
        },
        {
          "internalType": "string",
          "name": "gender",
          "type": "string"
        }
      ],
      "name": "uploadPersonalInfo",
      "outputs": [],
      "stateMutability": "nonpayable",
      "type": "function"
    },
    {
      "inputs": [
        {
          "internalType": "address",
          "name": "employerAddress",
          "type": "address"
        },
        {
          "internalType": "string",
          "name": "workplaceName",
          "type": "string"
        },
        {
          "internalType": "string",
          "name": "location",
          "type": "string"
        }
      ],
      "name": "uploadWorkplace",
      "outputs": [],
      "stateMutability": "nonpayable",
      "type": "function"
    },
    {
      "inputs": [
        {
          "internalType": "string[]",
          "name": "laborContractItems",
          "type": "string[]"
        },
        {
          "internalType": "string",
          "name": "stday",
          "type": "string"
        },
        {
          "internalType": "address",
          "name": "employeeAddress",
          "type": "address"
        },
        {
          "internalType": "uint256",
          "name": "wpindex",
          "type": "uint256"
        }
      ],
      "name": "uploadLaborContract",
      "outputs": [],
      "stateMutability": "nonpayable",
      "type": "function"
    },
    {
      "inputs": [
        {
          "internalType": "uint8",
          "name": "classifyNum",
          "type": "uint8"
        },
        {
          "internalType": "uint256",
          "name": "wpindex",
          "type": "uint256"
        },
        {
          "internalType": "string",
          "name": "day",
          "type": "string"
        },
        {
          "internalType": "int256",
          "name": "hour",
          "type": "int256"
        },
        {
          "internalType": "int256",
          "name": "minute",
          "type": "int256"
        }
      ],
      "name": "uploadAttendance",
      "outputs": [],
      "stateMutability": "nonpayable",
      "type": "function"
    },
    {
      "inputs": [
        {
          "internalType": "uint256",
          "name": "wpindex",
          "type": "uint256"
        },
        {
          "internalType": "address",
          "name": "ad",
          "type": "address"
        },
        {
          "internalType": "string",
          "name": "endDay",
          "type": "string"
        }
      ],
      "name": "deleteEmployee",
      "outputs": [],
      "stateMutability": "nonpayable",
      "type": "function"
    }
  ],
  "bytecode": "0x60806040526000600455600060055534801561001a57600080fd5b506147498061002a6000396000f3fe608060405234801561001057600080fd5b50600436106101165760003560e01c80637ece75e3116100a2578063c086982911610071578063c086982914610272578063ce0b7c7614610292578063e1d99c6f146102b2578063e53751f0146102c5578063f6757cff146102e557610116565b80637ece75e314610214578063957598b414610227578063968da72b1461023a5780639a832c381461025b57610116565b806351f97eaa116100e957806351f97eaa1461018d5780636451312a146101ae578063651415da146101ce57806367b3e8d7146101e1578063747750ff146101f457610116565b80630ff190071461011b57806329f0f4bf146101305780634a92390e1461015a5780634fbfa3631461016d575b600080fd5b61012e610129366004613e9d565b610306565b005b61014361013e366004613e5a565b610a3a565b6040516101519291906141c4565b60405180910390f35b61012e610168366004613daa565b610bc2565b61018061017b366004613ef5565b6112b6565b60405161015191906141b1565b6101a061019b366004613f16565b6113d6565b6040516101519291906141a3565b6101c16101bc366004613e72565b611697565b604051610151919061437d565b61012e6101dc366004613d12565b611bec565b6101c16101ef366004613e5a565b611c71565b610207610202366004613e72565b6120c4565b604051610151919061419a565b61012e610222366004613c94565b612199565b610207610235366004613f47565b61230f565b61024d610248366004613ef5565b61235d565b604051610151929190614120565b6102636125d6565b60405161015193929190614161565b610285610280366004613c73565b6129c6565b6040516101519190614455565b6102a56102a0366004613c73565b612d4c565b604051610151919061414e565b61012e6102c0366004613f81565b612db8565b6102d86102d3366004613ef5565b613156565b60405161015191906142ce565b6102f86102f3366004613e5a565b6134e2565b6040516101519291906140c0565b600061031285856120c4565b905060006006868154811061033757634e487b7160e01b600052603260045260246000fd5b90600052602060002090600502016002018054905090506006868154811061036f57634e487b7160e01b600052603260045260246000fd5b906000526020600020906005020160020160018261038d9190614690565b815481106103ab57634e487b7160e01b600052603260045260246000fd5b600091825260209091200154600680546001600160a01b0390921691889081106103e557634e487b7160e01b600052603260045260246000fd5b9060005260206000209060050201600201838154811061041557634e487b7160e01b600052603260045260246000fd5b9060005260206000200160006101000a8154816001600160a01b0302191690836001600160a01b031602179055506006868154811061046457634e487b7160e01b600052603260045260246000fd5b90600052602060002090600502016003016001826104829190614690565b815481106104a057634e487b7160e01b600052603260045260246000fd5b9060005260206000200154600687815481106104cc57634e487b7160e01b600052603260045260246000fd5b906000526020600020906005020160030183815481106104fc57634e487b7160e01b600052603260045260246000fd5b90600052602060002001819055506006868154811061052b57634e487b7160e01b600052603260045260246000fd5b90600052602060002090600502016004016001826105499190614690565b8154811061056757634e487b7160e01b600052603260045260246000fd5b90600052602060002090600602016006878154811061059657634e487b7160e01b600052603260045260246000fd5b906000526020600020906005020160040183815481106105c657634e487b7160e01b600052603260045260246000fd5b600091825260209091208254600690920201906105e6908290849061379b565b50600182810180546105fb9284019190613801565b50600282810180546106109284019190613801565b5060038281018054610625928401919061379b565b506004828101805461063a9284019190613801565b506005828101805461064f9284019190613801565b509050506006868154811061067457634e487b7160e01b600052603260045260246000fd5b90600052602060002090600502016002018054806106a257634e487b7160e01b600052603160045260246000fd5b600082815260209020810160001990810180546001600160a01b031916905501905560068054879081106106e657634e487b7160e01b600052603260045260246000fd5b906000526020600020906005020160030180548061071457634e487b7160e01b600052603160045260246000fd5b600190038181906000526020600020016000905590556006868154811061074b57634e487b7160e01b600052603260045260246000fd5b906000526020600020906005020160040180548061077957634e487b7160e01b600052603160045260246000fd5b60008281526020812060001990920191600683020190610799828261384d565b6107a760018301600061386e565b6107b560028301600061386e565b6107c360038301600061384d565b6107d160048301600061386e565b6107df60058301600061386e565b5050905560005b6001600160a01b0386166000908152602081905260409020600401548110156108c2576001600160a01b038616600090815260208190526040902060040180548891908390811061084757634e487b7160e01b600052603260045260246000fd5b906000526020600020015414156108b0576001600160a01b03861660009081526020819052604090206006018054869186918490811061089757634e487b7160e01b600052603260045260246000fd5b9060005260206000200191906108ae92919061388c565b505b806108ba816146e2565b9150506107e6565b5060005b6001600160a01b038616600090815260036020526040902054811015610a31576001600160a01b038616600090815260036020526040902080548891908390811061092157634e487b7160e01b600052603260045260246000fd5b90600052602060002001541415610a1f576001600160a01b0386166000908152600360205260409020805461095890600190614690565b8154811061097657634e487b7160e01b600052603260045260246000fd5b906000526020600020015460036000886001600160a01b03166001600160a01b0316815260200190815260200160002082815481106109c557634e487b7160e01b600052603260045260246000fd5b60009182526020808320909101929092556001600160a01b0388168152600390915260409020805480610a0857634e487b7160e01b600052603160045260246000fd5b600190038181906000526020600020016000905590555b80610a29816146e2565b9150506108c6565b50505050505050565b60608060068381548110610a5e57634e487b7160e01b600052603260045260246000fd5b906000526020600020906005020160000160068481548110610a9057634e487b7160e01b600052603260045260246000fd5b9060005260206000209060050201600101818054610aad906146a7565b80601f0160208091040260200160405190810160405280929190818152602001828054610ad9906146a7565b8015610b265780601f10610afb57610100808354040283529160200191610b26565b820191906000526020600020905b815481529060010190602001808311610b0957829003601f168201915b50505050509150808054610b39906146a7565b80601f0160208091040260200160405190810160405280929190818152602001828054610b65906146a7565b8015610bb25780601f10610b8757610100808354040283529160200191610bb2565b820191906000526020600020905b815481529060010190602001808311610b9557829003601f168201915b5050505050905091509150915091565b610bca613900565b8181528686600081610bec57634e487b7160e01b600052603260045260246000fd5b9050602002810190610bfe9190614502565b8080601f016020809104026020016040519081016040528093929190818152602001838380828437600092019190915250505050602082015286866001818110610c5857634e487b7160e01b600052603260045260246000fd5b9050602002810190610c6a9190614502565b8080601f016020809104026020016040519081016040528093929190818152602001838380828437600092019190915250505050604082015286866002818110610cc457634e487b7160e01b600052603260045260246000fd5b9050602002810190610cd69190614502565b8080601f016020809104026020016040519081016040528093929190818152602001838380828437600092019190915250505050606082015286866003818110610d3057634e487b7160e01b600052603260045260246000fd5b9050602002810190610d429190614502565b8080601f016020809104026020016040519081016040528093929190818152602001838380828437600092019190915250505050608082015286866004818110610d9c57634e487b7160e01b600052603260045260246000fd5b9050602002810190610dae9190614502565b8080601f01602080910402602001604051908101604052809392919081815260200183838082843760009201919091525050505060a082015286866005818110610e0857634e487b7160e01b600052603260045260246000fd5b9050602002810190610e1a9190614502565b8080601f01602080910402602001604051908101604052809392919081815260200183838082843760009201919091525050505060c082015286866006818110610e7457634e487b7160e01b600052603260045260246000fd5b9050602002810190610e869190614502565b8080601f016020809104026020016040519081016040528093929190818152602001838380828437600092018290525060e0860194909452505060078054600181018255925250815160089091027fa66cc928b5edb82af9bd49922954155ab7b0942694bea4ce44661d9a8736c68881019182556020808401518051859493610f35937fa66cc928b5edb82af9bd49922954155ab7b0942694bea4ce44661d9a8736c689909101920190613945565b5060408201518051610f51916002840191602090910190613945565b5060608201518051610f6d916003840191602090910190613945565b5060808201518051610f89916004840191602090910190613945565b5060a08201518051610fa5916005840191602090910190613945565b5060c08201518051610fc1916006840191602090910190613945565b5060e08201518051610fdd916007840191602090910190613945565b5050506001600160a01b038316600081815260016020818152604080842060055481548086018355918652838620909101559383526003815292822080549182018155825291902001829055600680548390811061104b57634e487b7160e01b600052603260045260246000fd5b60009182526020808320600592909202909101600201805460018101825590835291200180546001600160a01b0319166001600160a01b03851617905560068054839081106110aa57634e487b7160e01b600052603260045260246000fd5b600091825260208083206005805493810290910160030180546001808201835591865283862001939093556001600160a01b038716845283825260408420600481018054808601825590865283862001879055018054928301815583529091206111169101868661388c565b506001600160a01b038316600090815260208181526040808320600601805460018181018355918552938390208251808401909352818352600360fc1b92909301918252611168939290920191613945565b5060608060608060608060006040518060c00160405280888152602001878152602001868152602001858152602001848152602001838152509050600689815481106111c457634e487b7160e01b600052603260045260246000fd5b6000918252602080832060046005909302019190910180546001810182559083529181902083518051859460060290920192611205928492909101906139b9565b50602082810151805161121e9260018501920190613a06565b506040820151805161123a916002840191602090910190613a06565b50606082015180516112569160038401916020909101906139b9565b5060808201518051611272916004840191602090910190613a06565b5060a0820151805161128e916005840191602090910190613a06565b505060058054915060006112a1836146e2565b91905055505050505050505050505050505050565b60606007600684815481106112db57634e487b7160e01b600052603260045260246000fd5b9060005260206000209060050201600301838154811061130b57634e487b7160e01b600052603260045260246000fd5b90600052602060002001548154811061133457634e487b7160e01b600052603260045260246000fd5b90600052602060002090600802016005018054611350906146a7565b80601f016020809104026020016040519081016040528092919081815260200182805461137c906146a7565b80156113c95780601f1061139e576101008083540402835291602001916113c9565b820191906000526020600020905b8154815290600101906020018083116113ac57829003601f168201915b5050505050905092915050565b60008080808080875b8781116116865760068b8154811061140757634e487b7160e01b600052603260045260246000fd5b90600052602060002090600502016004018a8154811061143757634e487b7160e01b600052603260045260246000fd5b9060005260206000209060060201600101818154811061146757634e487b7160e01b600052603260045260246000fd5b906000526020600020015460068c8154811061149357634e487b7160e01b600052603260045260246000fd5b90600052602060002090600502016004018b815481106114c357634e487b7160e01b600052603260045260246000fd5b906000526020600020906006020160040182815481106114f357634e487b7160e01b600052603260045260246000fd5b90600052602060002001546115089190614651565b925060068b8154811061152b57634e487b7160e01b600052603260045260246000fd5b90600052602060002090600502016004018a8154811061155b57634e487b7160e01b600052603260045260246000fd5b9060005260206000209060060201600201818154811061158b57634e487b7160e01b600052603260045260246000fd5b906000526020600020015460068c815481106115b757634e487b7160e01b600052603260045260246000fd5b90600052602060002090600502016004018b815481106115e757634e487b7160e01b600052603260045260246000fd5b9060005260206000209060060201600501828154811061161757634e487b7160e01b600052603260045260246000fd5b906000526020600020015461162c9190614651565b9150600083121561164557611642836018614553565b92505b600082121561165c5761165982603c614553565b91505b6116668386614553565b94506116728285614553565b93508061167e816146e2565b9150506113df565b509299919850909650505050505050565b61169f613900565b6000805b6001600160a01b03841660009081526001602052604090205481101561175b576001600160a01b0384166000908152600160205260409020805486916007918490811061170057634e487b7160e01b600052603260045260246000fd5b90600052602060002001548154811061172957634e487b7160e01b600052603260045260246000fd5b90600052602060002090600802016000015414156117495780915061175b565b80611753816146e2565b9150506116a3565b506001600160a01b03831660009081526001602052604090208054600791908390811061179857634e487b7160e01b600052603260045260246000fd5b9060005260206000200154815481106117c157634e487b7160e01b600052603260045260246000fd5b906000526020600020906008020160405180610100016040529081600082015481526020016001820180546117f5906146a7565b80601f0160208091040260200160405190810160405280929190818152602001828054611821906146a7565b801561186e5780601f106118435761010080835404028352916020019161186e565b820191906000526020600020905b81548152906001019060200180831161185157829003601f168201915b50505050508152602001600282018054611887906146a7565b80601f01602080910402602001604051908101604052809291908181526020018280546118b3906146a7565b80156119005780601f106118d557610100808354040283529160200191611900565b820191906000526020600020905b8154815290600101906020018083116118e357829003601f168201915b50505050508152602001600382018054611919906146a7565b80601f0160208091040260200160405190810160405280929190818152602001828054611945906146a7565b80156119925780601f1061196757610100808354040283529160200191611992565b820191906000526020600020905b81548152906001019060200180831161197557829003601f168201915b505050505081526020016004820180546119ab906146a7565b80601f01602080910402602001604051908101604052809291908181526020018280546119d7906146a7565b8015611a245780601f106119f957610100808354040283529160200191611a24565b820191906000526020600020905b815481529060010190602001808311611a0757829003601f168201915b50505050508152602001600582018054611a3d906146a7565b80601f0160208091040260200160405190810160405280929190818152602001828054611a69906146a7565b8015611ab65780601f10611a8b57610100808354040283529160200191611ab6565b820191906000526020600020905b815481529060010190602001808311611a9957829003601f168201915b50505050508152602001600682018054611acf906146a7565b80601f0160208091040260200160405190810160405280929190818152602001828054611afb906146a7565b8015611b485780601f10611b1d57610100808354040283529160200191611b48565b820191906000526020600020905b815481529060010190602001808311611b2b57829003601f168201915b50505050508152602001600782018054611b61906146a7565b80601f0160208091040260200160405190810160405280929190818152602001828054611b8d906146a7565b8015611bda5780601f10611baf57610100808354040283529160200191611bda565b820191906000526020600020905b815481529060010190602001808311611bbd57829003601f168201915b50505050508152505091505092915050565b6001600160a01b0387163314611c1d5760405162461bcd60e51b8152600401611c14906142a0565b60405180910390fd5b6001600160a01b0387166000908152602081905260409020805460ff191660ff8816178155611c5060018201878761388c565b5060028101849055611c6660038201848461388c565b505050505050505050565b611c79613900565b60078281548110611c9a57634e487b7160e01b600052603260045260246000fd5b90600052602060002090600802016040518061010001604052908160008201548152602001600182018054611cce906146a7565b80601f0160208091040260200160405190810160405280929190818152602001828054611cfa906146a7565b8015611d475780601f10611d1c57610100808354040283529160200191611d47565b820191906000526020600020905b815481529060010190602001808311611d2a57829003601f168201915b50505050508152602001600282018054611d60906146a7565b80601f0160208091040260200160405190810160405280929190818152602001828054611d8c906146a7565b8015611dd95780601f10611dae57610100808354040283529160200191611dd9565b820191906000526020600020905b815481529060010190602001808311611dbc57829003601f168201915b50505050508152602001600382018054611df2906146a7565b80601f0160208091040260200160405190810160405280929190818152602001828054611e1e906146a7565b8015611e6b5780601f10611e4057610100808354040283529160200191611e6b565b820191906000526020600020905b815481529060010190602001808311611e4e57829003601f168201915b50505050508152602001600482018054611e84906146a7565b80601f0160208091040260200160405190810160405280929190818152602001828054611eb0906146a7565b8015611efd5780601f10611ed257610100808354040283529160200191611efd565b820191906000526020600020905b815481529060010190602001808311611ee057829003601f168201915b50505050508152602001600582018054611f16906146a7565b80601f0160208091040260200160405190810160405280929190818152602001828054611f42906146a7565b8015611f8f5780601f10611f6457610100808354040283529160200191611f8f565b820191906000526020600020905b815481529060010190602001808311611f7257829003601f168201915b50505050508152602001600682018054611fa8906146a7565b80601f0160208091040260200160405190810160405280929190818152602001828054611fd4906146a7565b80156120215780601f10611ff657610100808354040283529160200191612021565b820191906000526020600020905b81548152906001019060200180831161200457829003601f168201915b5050505050815260200160078201805461203a906146a7565b80601f0160208091040260200160405190810160405280929190818152602001828054612066906146a7565b80156120b35780601f10612088576101008083540402835291602001916120b3565b820191906000526020600020905b81548152906001019060200180831161209657829003601f168201915b50505050508152505090505b919050565b60008060005b600685815481106120eb57634e487b7160e01b600052603260045260246000fd5b906000526020600020906005020160020180549050811015612191576006858154811061212857634e487b7160e01b600052603260045260246000fd5b9060005260206000209060050201600201818154811061215857634e487b7160e01b600052603260045260246000fd5b6000918252602090912001546001600160a01b038581169116141561217f57809150612191565b80612189816146e2565b9150506120ca565b509392505050565b6006805460010180825560008290526004546060928392889288929181106121d157634e487b7160e01b600052603260045260246000fd5b600091825260209091206121eb936005909202019161388c565b50838360066004548154811061221157634e487b7160e01b600052603260045260246000fd5b9060005260206000209060050201600101919061222f92919061388c565b508160066004548154811061225457634e487b7160e01b600052603260045260246000fd5b90600052602060002090600502016002019080519060200190612278929190613a40565b508060066004548154811061229d57634e487b7160e01b600052603260045260246000fd5b906000526020600020906005020160030190805190602001906122c1929190613a06565b506001600160a01b0387166000908152600260209081526040822060048054825460018101845592855292842090910191909155805491612301836146e2565b919050555050505050505050565b6000806000612320888888886113d6565b90925090506000612332603c86614594565b61233c90836145ce565b61234686856145ce565b6123509190614553565b9998505050505050505050565b6060806006848154811061238157634e487b7160e01b600052603260045260246000fd5b906000526020600020906005020160040183815481106123b157634e487b7160e01b600052603260045260246000fd5b9060005260206000209060060201600001600685815481106123e357634e487b7160e01b600052603260045260246000fd5b9060005260206000209060050201600401848154811061241357634e487b7160e01b600052603260045260246000fd5b906000526020600020906006020160030181805480602002602001604051908101604052809291908181526020016000905b828210156124f1578382906000526020600020018054612464906146a7565b80601f0160208091040260200160405190810160405280929190818152602001828054612490906146a7565b80156124dd5780601f106124b2576101008083540402835291602001916124dd565b820191906000526020600020905b8154815290600101906020018083116124c057829003601f168201915b505050505081526020019060010190612445565b50505050915080805480602002602001604051908101604052809291908181526020016000905b828210156125c4578382906000526020600020018054612537906146a7565b80601f0160208091040260200160405190810160405280929190818152602001828054612563906146a7565b80156125b05780601f10612585576101008083540402835291602001916125b0565b820191906000526020600020905b81548152906001019060200180831161259357829003601f168201915b505050505081526020019060010190612518565b505050509050915091505b9250929050565b3360009081526020819052604090205460609081908190819060ff1661265757336000908152600360209081526040918290208054835181840281018401909452808452909183018282801561264b57602002820191906000526020600020905b815481526020019060010190808311612637575b505050505090506126b4565b33600090815260026020908152604091829020805483518184028101840190945280845290918301828280156126ac57602002820191906000526020600020905b815481526020019060010190808311612698575b505050505090505b6000815167ffffffffffffffff8111156126de57634e487b7160e01b600052604160045260246000fd5b60405190808252806020026020018201604052801561271157816020015b60608152602001906001900390816126fc5790505b5090506000825167ffffffffffffffff81111561273e57634e487b7160e01b600052604160045260246000fd5b60405190808252806020026020018201604052801561277157816020015b606081526020019060019003908161275c5790505b50905060005b83518110156129b957600060068583815181106127a457634e487b7160e01b600052603260045260246000fd5b6020026020010151815481106127ca57634e487b7160e01b600052603260045260246000fd5b906000526020600020906005020160000180546127e6906146a7565b80601f0160208091040260200160405190810160405280929190818152602001828054612812906146a7565b801561285f5780601f106128345761010080835404028352916020019161285f565b820191906000526020600020905b81548152906001019060200180831161284257829003601f168201915b505050505090506000600686848151811061288a57634e487b7160e01b600052603260045260246000fd5b6020026020010151815481106128b057634e487b7160e01b600052603260045260246000fd5b906000526020600020906005020160010180546128cc906146a7565b80601f01602080910402602001604051908101604052809291908181526020018280546128f8906146a7565b80156129455780601f1061291a57610100808354040283529160200191612945565b820191906000526020600020905b81548152906001019060200180831161292857829003601f168201915b505050505090508185848151811061296d57634e487b7160e01b600052603260045260246000fd5b60200260200101819052508084848151811061299957634e487b7160e01b600052603260045260246000fd5b6020026020010181905250505080806129b1906146e2565b915050612777565b5091945092509050909192565b6129ce613a95565b6001600160a01b03821660009081526020818152604091829020825160a08101909352805460ff1683526001810180549192840191612a0c906146a7565b80601f0160208091040260200160405190810160405280929190818152602001828054612a38906146a7565b8015612a855780601f10612a5a57610100808354040283529160200191612a85565b820191906000526020600020905b815481529060010190602001808311612a6857829003601f168201915b5050505050815260200160028201548152602001600382018054612aa8906146a7565b80601f0160208091040260200160405190810160405280929190818152602001828054612ad4906146a7565b8015612b215780601f10612af657610100808354040283529160200191612b21565b820191906000526020600020905b815481529060010190602001808311612b0457829003601f168201915b505050505081526020016004820160405180606001604052908160008201805480602002602001604051908101604052809291908181526020018280548015612b8957602002820191906000526020600020905b815481526020019060010190808311612b75575b5050505050815260200160018201805480602002602001604051908101604052809291908181526020016000905b82821015612c63578382906000526020600020018054612bd6906146a7565b80601f0160208091040260200160405190810160405280929190818152602001828054612c02906146a7565b8015612c4f5780601f10612c2457610100808354040283529160200191612c4f565b820191906000526020600020905b815481529060010190602001808311612c3257829003601f168201915b505050505081526020019060010190612bb7565b50505050815260200160028201805480602002602001604051908101604052809291908181526020016000905b82821015612d3c578382906000526020600020018054612caf906146a7565b80601f0160208091040260200160405190810160405280929190818152602001828054612cdb906146a7565b8015612d285780601f10612cfd57610100808354040283529160200191612d28565b820191906000526020600020905b815481529060010190602001808311612d0b57829003601f168201915b505050505081526020019060010190612c90565b5050509152505090525092915050565b6001600160a01b038116600090815260016020908152604091829020805483518184028101840190945280845260609392830182828015612dac57602002820191906000526020600020905b815481526020019060010190808311612d98575b50505050509050919050565b6000612dc486336120c4565b905060ff8716612f885760068681548110612def57634e487b7160e01b600052603260045260246000fd5b90600052602060002090600502016004018181548110612e1f57634e487b7160e01b600052603260045260246000fd5b60009182526020808320600690920290910180546001810182559083529120612e4a9101868661388c565b5060068681548110612e6c57634e487b7160e01b600052603260045260246000fd5b90600052602060002090600502016004018181548110612e9c57634e487b7160e01b600052603260045260246000fd5b6000918252602080832060069283020160019081018054918201815584529220909101849055805487908110612ee257634e487b7160e01b600052603260045260246000fd5b90600052602060002090600502016004018181548110612f1257634e487b7160e01b600052603260045260246000fd5b60009182526020808320600260069093020191909101805460018181018355918452828420018590553383529082905260409182902091517fc006236e64ec6397c07de8a9ed93dcdd48105e6712425de3b2559d7f6ea8e48b92612f7b920190869086906141e9565b60405180910390a1610a31565b8660ff1660011415610a315760068681548110612fb557634e487b7160e01b600052603260045260246000fd5b90600052602060002090600502016004018181548110612fe557634e487b7160e01b600052603260045260246000fd5b60009182526020808320600360069093020191909101805460018101825590835291206130149101868661388c565b506006868154811061303657634e487b7160e01b600052603260045260246000fd5b9060005260206000209060050201600401818154811061306657634e487b7160e01b600052603260045260246000fd5b60009182526020808320600692830201600401805460018101825590845292209091018490558054879081106130ac57634e487b7160e01b600052603260045260246000fd5b906000526020600020906005020160040181815481106130dc57634e487b7160e01b600052603260045260246000fd5b60009182526020808320600560069093020191909101805460018181018355918452828420018590553383529082905260409182902091517fbf84babda2bcc2b2ac0f647743c00b74f1bdc289282b0230244fdfcdba39ea1992613145920190869086906141e9565b60405180910390a150505050505050565b61315e613acc565b6006838154811061317f57634e487b7160e01b600052603260045260246000fd5b906000526020600020906005020160040182815481106131af57634e487b7160e01b600052603260045260246000fd5b90600052602060002090600602016040518060c001604052908160008201805480602002602001604051908101604052809291908181526020016000905b8282101561329957838290600052602060002001805461320c906146a7565b80601f0160208091040260200160405190810160405280929190818152602001828054613238906146a7565b80156132855780601f1061325a57610100808354040283529160200191613285565b820191906000526020600020905b81548152906001019060200180831161326857829003601f168201915b5050505050815260200190600101906131ed565b505050508152602001600182018054806020026020016040519081016040528092919081815260200182805480156132f057602002820191906000526020600020905b8154815260200190600101908083116132dc575b505050505081526020016002820180548060200260200160405190810160405280929190818152602001828054801561334857602002820191906000526020600020905b815481526020019060010190808311613334575b5050505050815260200160038201805480602002602001604051908101604052809291908181526020016000905b82821015613422578382906000526020600020018054613395906146a7565b80601f01602080910402602001604051908101604052809291908181526020018280546133c1906146a7565b801561340e5780601f106133e35761010080835404028352916020019161340e565b820191906000526020600020905b8154815290600101906020018083116133f157829003601f168201915b505050505081526020019060010190613376565b5050505081526020016004820180548060200260200160405190810160405280929190818152602001828054801561347957602002820191906000526020600020905b815481526020019060010190808311613465575b50505050508152602001600582018054806020026020016040519081016040528092919081815260200182805480156134d157602002820191906000526020600020905b8154815260200190600101908083116134bd575b505050505081525050905092915050565b60608060006006848154811061350857634e487b7160e01b600052603260045260246000fd5b90600052602060002090600502016002018054905067ffffffffffffffff81111561354357634e487b7160e01b600052604160045260246000fd5b60405190808252806020026020018201604052801561357657816020015b60608152602001906001900390816135615790505b50905060005b6006858154811061359d57634e487b7160e01b600052603260045260246000fd5b906000526020600020906005020160020180549050811015613701576000806000600688815481106135df57634e487b7160e01b600052603260045260246000fd5b9060005260206000209060050201600201848154811061360f57634e487b7160e01b600052603260045260246000fd5b60009182526020808320909101546001600160a01b0316835282019290925260400190206001018054613641906146a7565b80601f016020809104026020016040519081016040528092919081815260200182805461366d906146a7565b80156136ba5780601f1061368f576101008083540402835291602001916136ba565b820191906000526020600020905b81548152906001019060200180831161369d57829003601f168201915b50505050509050808383815181106136e257634e487b7160e01b600052603260045260246000fd5b60200260200101819052505080806136f9906146e2565b91505061357c565b506006848154811061372357634e487b7160e01b600052603260045260246000fd5b9060005260206000209060050201600201818180548060200260200160405190810160405280929190818152602001828054801561378a57602002820191906000526020600020905b81546001600160a01b0316815260019091019060200180831161376c575b505050505091509250925050915091565b8280548282559060005260206000209081019282156137f15760005260206000209182015b828111156137f15782829080546137d6906146a7565b6137e1929190613b02565b50916001019190600101906137c0565b506137fd929150613b7c565b5090565b8280548282559060005260206000209081019282156138415760005260206000209182015b82811115613841578254825591600101919060010190613826565b506137fd929150613b99565b508054600082559060005260206000209081019061386b9190613b7c565b50565b508054600082559060005260206000209081019061386b9190613b99565b828054613898906146a7565b90600052602060002090601f0160209004810192826138ba5760008555613841565b82601f106138d35782800160ff19823516178555613841565b82800160010185558215613841579182015b828111156138415782358255916020019190600101906138e5565b60405180610100016040528060008152602001606081526020016060815260200160608152602001606081526020016060815260200160608152602001606081525090565b828054613951906146a7565b90600052602060002090601f0160209004810192826139735760008555613841565b82601f1061398c57805160ff1916838001178555613841565b82800160010185558215613841579182015b8281111561384157825182559160200191906001019061399e565b8280548282559060005260206000209081019282156137f1579160200282015b828111156137f157825180516139f6918491602090910190613945565b50916020019190600101906139d9565b828054828255906000526020600020908101928215613841579160200282018281111561384157825182559160200191906001019061399e565b828054828255906000526020600020908101928215613841579160200282015b8281111561384157825182546001600160a01b0319166001600160a01b03909116178255602090920191600190910190613a60565b6040518060a00160405280600060ff168152602001606081526020016000815260200160608152602001613ac7613bae565b905290565b6040518060c001604052806060815260200160608152602001606081526020016060815260200160608152602001606081525090565b828054613b0e906146a7565b90600052602060002090601f016020900481019282613b305760008555613841565b82601f10613b415780548555613841565b8280016001018555821561384157600052602060002091601f0160209004820182811115613841578254825591600101919060010190613826565b808211156137fd576000613b908282613bcf565b50600101613b7c565b5b808211156137fd5760008155600101613b9a565b60405180606001604052806060815260200160608152602001606081525090565b508054613bdb906146a7565b6000825580601f10613bed575061386b565b601f01602090049060005260206000209081019061386b9190613b99565b80356001600160a01b03811681146120bf57600080fd5b60008083601f840112613c33578182fd5b50813567ffffffffffffffff811115613c4a578182fd5b6020830191508360208285010111156125cf57600080fd5b803560ff811681146120bf57600080fd5b600060208284031215613c84578081fd5b613c8d82613c0b565b9392505050565b600080600080600060608688031215613cab578081fd5b613cb486613c0b565b9450602086013567ffffffffffffffff80821115613cd0578283fd5b613cdc89838a01613c22565b90965094506040880135915080821115613cf4578283fd5b50613d0188828901613c22565b969995985093965092949392505050565b600080600080600080600060a0888a031215613d2c578182fd5b613d3588613c0b565b9650613d4360208901613c62565b9550604088013567ffffffffffffffff80821115613d5f578384fd5b613d6b8b838c01613c22565b909750955060608a0135945060808a0135915080821115613d8a578384fd5b50613d978a828b01613c22565b989b979a50959850939692959293505050565b60008060008060008060808789031215613dc2578182fd5b863567ffffffffffffffff80821115613dd9578384fd5b818901915089601f830112613dec578384fd5b813581811115613dfa578485fd5b8a60208083028501011115613e0d578485fd5b602092830198509650908801359080821115613e27578384fd5b50613e3489828a01613c22565b9095509350613e47905060408801613c0b565b9150606087013590509295509295509295565b600060208284031215613e6b578081fd5b5035919050565b60008060408385031215613e84578182fd5b82359150613e9460208401613c0b565b90509250929050565b60008060008060608587031215613eb2578384fd5b84359350613ec260208601613c0b565b9250604085013567ffffffffffffffff811115613edd578283fd5b613ee987828801613c22565b95989497509550505050565b60008060408385031215613f07578182fd5b50508035926020909101359150565b60008060008060808587031215613f2b578384fd5b5050823594602084013594506040840135936060013592509050565b600080600080600060a08688031215613f5e578081fd5b505083359560208501359550604085013594606081013594506080013592509050565b60008060008060008060a08789031215613f99578182fd5b613fa287613c62565b955060208701359450604087013567ffffffffffffffff811115613fc4578283fd5b613fd089828a01613c22565b979a9699509760608101359660809091013595509350505050565b6000815180845260208085019450808401835b8381101561401a57815187529582019590820190600101613ffe565b509495945050505050565b6000815180845260208085019450848183028601828601855b85811015614068578383038952614056838351614075565b9885019892509084019060010161403e565b5090979650505050505050565b60008151808452815b8181101561409a5760208185018101518683018201520161407e565b818111156140ab5782602083870101525b50601f01601f19169290920160200192915050565b604080825283519082018190526000906020906060840190828701845b828110156141025781516001600160a01b0316845292840192908401906001016140dd565b505050838103828501526141168186614025565b9695505050505050565b6000604082526141336040830185614025565b82810360208401526141458185614025565b95945050505050565b600060208252613c8d6020830184613feb565b6000606082526141746060830186613feb565b82810360208401526141868186614025565b905082810360408401526141168185614025565b90815260200190565b918252602082015260400190565b600060208252613c8d6020830184614075565b6000604082526141d76040830185614075565b82810360208401526141458185614075565b60608152835460009081906002810460018083168061420957607f831692505b602080841082141561422957634e487b7160e01b87526022600452602487fd5b6142368460608a0161419a565b82801561424a576001811461425b57614285565b60ff19871682528282019750614285565b6142648d614547565b895b8781101561427f57815484820152908601908401614266565b83019850505b50508701989098525050506040909201929092529392505050565b602080825260149082015273796f7572206e6f74206d73672e73656e6465722160601b604082015260600190565b600060208252825160c060208401526142ea60e0840182614025565b90506020840151601f19808584030160408601526143088383613feb565b925060408601519150808584030160608601526143258383613feb565b925060608601519150808584030160808601526143428383614025565b925060808601519150808584030160a086015261435f8383613feb565b925060a08601519150808584030160c0860152506141458282613feb565b6000602082528251602083015260208301516101008060408501526143a6610120850183614075565b91506040850151601f19808685030160608701526143c48483614075565b935060608701519150808685030160808701526143e18483614075565b935060808701519150808685030160a08701526143fe8483614075565b935060a08701519150808685030160c087015261441b8483614075565b935060c08701519150808685030160e08701526144388483614075565b935060e08701519150808685030183870152506141168382614075565b60006020825260ff8351166020830152602083015160a0604084015261447e60c0840182614075565b9050604084015160608401526060840151601f19808584030160808601526144a68383614075565b925060808601519150808584030160a0860152508051606083526144cd6060840182613feb565b9050602082015183820360208501526144e68282614025565b9150506040820151915082810360408401526141168183614025565b6000808335601e19843603018112614518578283fd5b83018035915067ffffffffffffffff821115614532578283fd5b6020019150368190038213156125cf57600080fd5b60009081526020902090565b600080821280156001600160ff1b0384900385131615614575576145756146fd565b600160ff1b839003841281161561458e5761458e6146fd565b50500190565b6000826145af57634e487b7160e01b81526012600452602481fd5b600160ff1b8214600019841416156145c9576145c96146fd565b500590565b60006001600160ff1b03818413828413808216868404861116156145f4576145f46146fd565b600160ff1b84871282811687830589121615614612576146126146fd565b85871292508782058712848416161561462d5761462d6146fd565b87850587128184161615614643576146436146fd565b505050929093029392505050565b60008083128015600160ff1b85018412161561466f5761466f6146fd565b6001600160ff1b038401831381161561468a5761468a6146fd565b50500390565b6000828210156146a2576146a26146fd565b500390565b6002810460018216806146bb57607f821691505b602082108114156146dc57634e487b7160e01b600052602260045260246000fd5b50919050565b60006000198214156146f6576146f66146fd565b5060010190565b634e487b7160e01b600052601160045260246000fdfea2646970667358221220cf6279ec2ea428b00c7a8d5c57277122e9f82be3031f333cc1751565e845e49564736f6c63430008000033",
  "immutableReferences": {},
  "source": "// SPDX-License-Identifier: MIT\r\npragma solidity ^0.8.0;\r\n\r\ncontract LaborContract {\r\n  \r\n  //   mapping\r\n  mapping(address => personalInfo) private _person;\r\n\r\n  //    index mapping\r\n  mapping(address => uint256 []) private _employeeLaborContractList;\r\n\r\n  //    index mapping\r\n  mapping(address => uint256 []) private _employerWorkplaceList;\r\n\r\n  //    index mapping\r\n  mapping(address => uint256 []) private _employeeWorkplaceList;\r\n\r\n  //  index  \r\n  uint private _workplaceIndex = 0;\r\n  \r\n  //  index  \r\n  uint private _laborContractIndex = 0;\r\n  \r\n  //  \r\n  // identiNumber : 0 =>  1 => \r\n  struct personalInfo {\r\n    uint8 identiNumber;\r\n    string name;\r\n    uint age;\r\n    string gender;\r\n    careerst career;\r\n  }\r\n\r\n  //  \r\n  // employee attendance, laborContractIndex index   ->   index \r\n  struct workplaceInfo {\r\n    string name;\r\n    string location;\r\n    address [] employee;\r\n    uint [] laborContractIndex;\r\n    attendance [] attendanceList;\r\n  }\r\n\r\n  //  \r\n  struct attendance {\r\n    string [] startDay;\r\n    int [] startHour;\r\n    int [] startMinute;\r\n    string [] endDay;\r\n    int [] endHour;\r\n    int [] endMinute;\r\n  }\r\n\r\n  //  \r\n  struct laborContract {\r\n    uint workplaceIndex;      //  index\r\n    string peroid;            //  \r\n    string duties;            // \r\n    string workingTime;       // \r\n    string workingDays;       // \r\n    string wage;              // ()\r\n    string wageday;           // \r\n    string comment;           // \r\n  }\r\n\r\n  struct careerst {\r\n    uint [] index;\r\n    string [] startDay;\r\n    string [] endDay;\r\n  }\r\n  \r\n  // struct  \r\n  workplaceInfo [] private wpinfo;\r\n  laborContract [] private lbcontract;\r\n\r\n  // event \r\n  event Onwork(string name, int timeHour, int timeMinute);\r\n  event Offwork(string name, int timeHour, int timeMinute);\r\n\r\n  //////////////////////////////////////////////////////////////////////////////////////////////////////\r\n  //////////////////////////////////////////////////////////////////////////////////////////////////////\r\n  //////////////////////////////////////////////////////////////////////////////////////////////////////\r\n\r\n  //     \r\n  function getPersonInformation (address person) public view \r\n  returns (personalInfo memory){\r\n    return (_person[person]);\r\n  }\r\n\r\n  //      return \r\n  function getEmployeeInfo (uint wpindex) public view \r\n  returns (address [] memory, string [] memory) {\r\n    \r\n    //      \r\n    string [] memory nameList = new string[](wpinfo[wpindex].employee.length);\r\n    \r\n    // employee address  ,  name \r\n    for (uint x = 0; x < wpinfo[wpindex].employee.length ; x++) {\r\n      string memory name = _person[wpinfo[wpindex].employee[x]].name;\r\n      nameList[x] = name;\r\n    }\r\n\r\n    // address name return\r\n    return (\r\n      wpinfo[wpindex].employee,\r\n      nameList\r\n    );\r\n  }\r\n\r\n  //   index return \r\n  function getIndexOfEmployee (uint wpindex, address employeeAddress) public view returns (uint) {\r\n    \r\n    uint index;\r\n\r\n    // msg.sender     address   index return\r\n    for (uint x = 0; x < wpinfo[wpindex].employee.length ; x++) {\r\n      if(employeeAddress == wpinfo[wpindex].employee[x]){\r\n        index = x;\r\n        break;\r\n      }\r\n    }\r\n\r\n    return index;\r\n  }\r\n\r\n  //   &    \r\n  function getWorkplaces () public view \r\n  returns (uint [] memory, string [] memory, string [] memory){\r\n    \r\n    uint [] memory array;\r\n\r\n    // identiNumber = 0 =>  1 => \r\n    // 0 -> array mapping _employeeWorkplaceList    index \r\n    // 1 -> array mapping _employerWorkplaceList    index \r\n\r\n    if (_person[msg.sender].identiNumber == 0) array = _employeeWorkplaceList[msg.sender];\r\n    else array = _employerWorkplaceList[msg.sender];\r\n\r\n    string [] memory nameList = new string[](array.length);\r\n    string [] memory locationList = new string[](array.length);\r\n\r\n    for (uint x = 0; x < array.length ; x++) {\r\n      string memory name = wpinfo[array[x]].name;\r\n      string memory location = wpinfo[array[x]].location;\r\n\r\n      nameList[x] = name;\r\n      locationList[x] = location;\r\n    }\r\n\r\n    //  index list, name list, location list return\r\n    return (array, nameList, locationList);\r\n  }\r\n\r\n  //  ,   \r\n  function getWorkplcesInfo (uint wpindex) public view\r\n  returns (string memory, string memory) {\r\n    return(wpinfo[wpindex].name, wpinfo[wpindex].location);\r\n  }\r\n\r\n  //    &      \r\n  function getLaborContract (uint wpindex, address employeeAddress) public view \r\n  returns(laborContract memory) {\r\n    uint tempIndex;\r\n     // mapping _employeeLaborContractList   workplaceIndex  \r\n    for (uint x = 0 ; x < _employeeLaborContractList[employeeAddress].length ; x++){\r\n      if (lbcontract[_employeeLaborContractList[employeeAddress][x]].workplaceIndex == wpindex) {\r\n          tempIndex = x;\r\n          break;\r\n        }\r\n      }\r\n\r\n      return (lbcontract[_employeeLaborContractList[employeeAddress][tempIndex]]);\r\n  }\r\n\r\n  // index    \r\n  function getLaborContract2 (uint lbindex) public view returns (laborContract memory){\r\n    return(lbcontract[lbindex]);\r\n  }\r\n\r\n  //     \r\n  function getAllLaborContract (address employeeAddress) public view returns(uint [] memory) {\r\n    return _employeeLaborContractList[employeeAddress];\r\n  }\r\n\r\n  //    or     return\r\n  function getWage (uint wpindex, uint employeeIndex) public view \r\n  returns (string memory) {\r\n    return(lbcontract[wpinfo[wpindex].laborContractIndex[employeeIndex]].wage);\r\n  }\r\n\r\n  //    or    ,   return \r\n  function getCalAttendance (uint wpindex, uint employeeIndex) public view \r\n  returns (string [] memory, string [] memory){\r\n\r\n    return(\r\n      wpinfo[wpindex].attendanceList[employeeIndex].startDay,\r\n      wpinfo[wpindex].attendanceList[employeeIndex].endDay\r\n    );\r\n\r\n  }\r\n\r\n  //    or       return \r\n  function getAllAttendance (uint wpindex, uint employeeIndex) public view \r\n  returns (attendance memory){\r\n    return (wpinfo[wpindex].attendanceList[employeeIndex]);\r\n  }\r\n\r\n  //      return \r\n  // hour(), minute()     ->       \r\n  // ,   getCalAttendance  string            .\r\n  function getWorkTime (uint wpindex, uint employeeIndex, uint startIndex, uint endIndex) public view \r\n  returns (int, int) {\r\n\r\n    int Allhour = 0;\r\n    int Allminute = 0;\r\n\r\n    int hour;\r\n    int minute;\r\n\r\n    for (uint x = startIndex ; x <= endIndex ; x++) {\r\n      \r\n      hour = wpinfo[wpindex].attendanceList[employeeIndex].endHour[x] \r\n      - wpinfo[wpindex].attendanceList[employeeIndex].startHour[x];\r\n\r\n      minute = wpinfo[wpindex].attendanceList[employeeIndex].endMinute[x] \r\n      - wpinfo[wpindex].attendanceList[employeeIndex].startMinute[x];\r\n\r\n      if (hour < 0) hour = hour + 24;\r\n      if (minute < 0) minute = minute + 60;\r\n\r\n      Allhour += hour;\r\n      Allminute += minute;\r\n    }\r\n\r\n    return (Allhour, Allminute);\r\n\r\n  }\r\n\r\n  //   \r\n  // wage  getWage  string to int    \r\n  function getPayment (uint wpindex, uint employeeIndex, uint startIndex, uint endIndex, int wage) public view \r\n  returns (int) {\r\n\r\n    int Allhour;\r\n    int Allminute;\r\n\r\n    (Allhour, Allminute) = getWorkTime(wpindex, employeeIndex, startIndex, endIndex);\r\n\r\n    int Allwage = (Allhour * wage) + (Allminute * (wage / 60));\r\n\r\n    return (Allwage);\r\n  }\r\n\r\n\r\n  //////////////////////////////////////////////////////////////////////////////////////////////////////\r\n  //////////////////////////////////////////////////////////////////////////////////////////////////////\r\n  //////////////////////////////////////////////////////////////////////////////////////////////////////\r\n\r\n\r\n  //    \r\n  function uploadPersonalInfo(address person, uint8 identiNumber, string calldata name, uint age, string calldata gender) public {\r\n    require(person == msg.sender, \"your not msg.sender!\");\r\n\r\n    personalInfo storage newPersonalInfo = _person[person];\r\n\r\n    newPersonalInfo.identiNumber = identiNumber;\r\n    newPersonalInfo.name = name;\r\n    newPersonalInfo.age = age;\r\n    newPersonalInfo.gender = gender;\r\n\r\n  }\r\n  \r\n  //    \r\n  function uploadWorkplace(address employerAddress, string calldata workplaceName, string calldata location) public {\r\n    address [] memory employee;\r\n    uint [] memory laborContractIndex;\r\n\r\n    wpinfo.push();\r\n    wpinfo[_workplaceIndex].name = workplaceName;\r\n    wpinfo[_workplaceIndex].location = location;\r\n    wpinfo[_workplaceIndex].employee = employee;\r\n    wpinfo[_workplaceIndex].laborContractIndex = laborContractIndex;\r\n\r\n    // _employerWorkplaceList mapping  index \r\n    _employerWorkplaceList[employerAddress].push(_workplaceIndex);\r\n\r\n    //  index \r\n    _workplaceIndex++;\r\n  }\r\n\r\n  //   \r\n  function uploadLaborContract(string [] calldata laborContractItems, string calldata stday, address employeeAddress, uint wpindex) public {\r\n    laborContract memory newLabor;\r\n\r\n    newLabor.workplaceIndex = wpindex;\r\n    newLabor.peroid = laborContractItems[0];\r\n    newLabor.duties = laborContractItems[1];\r\n    newLabor.workingTime = laborContractItems[2];\r\n    newLabor.workingDays = laborContractItems[3];\r\n    newLabor.wage = laborContractItems[4];\r\n    newLabor.wageday = laborContractItems[5];\r\n    newLabor.comment =  laborContractItems[6];\r\n\r\n    lbcontract.push(newLabor);\r\n\r\n    // _employeeLaborContractList mapping  index \r\n    // _employeeWorkplaceList mapping  index \r\n    _employeeLaborContractList[employeeAddress].push(_laborContractIndex);\r\n    _employeeWorkplaceList[employeeAddress].push(wpindex);\r\n\r\n    // workplace  \r\n    wpinfo[wpindex].employee.push(employeeAddress);\r\n    \r\n    // workspace  index \r\n    wpinfo[wpindex].laborContractIndex.push(_laborContractIndex);\r\n\r\n    _person[employeeAddress].career.index.push(wpindex);\r\n    _person[employeeAddress].career.startDay.push(stday);\r\n    _person[employeeAddress].career.endDay.push(\"0\");\r\n\r\n    string [] memory sd;\r\n    int [] memory sh;\r\n    int [] memory sm;\r\n    string [] memory ed;\r\n    int [] memory eh;\r\n    int [] memory em;\r\n\r\n    attendance memory newAttendance = attendance(sd, sh, sm, ed, eh, em);\r\n\r\n    //      \r\n    wpinfo[wpindex].attendanceList.push(newAttendance);\r\n\r\n    //  index \r\n    _laborContractIndex++;\r\n\r\n  }\r\n\r\n  //   \r\n  // classifyNum : 0 ->  / 1 -> \r\n  function uploadAttendance (uint8 classifyNum, uint wpindex,\r\n  string calldata day, int hour, int minute) public {\r\n    uint index = getIndexOfEmployee(wpindex, msg.sender);\r\n\r\n    // \r\n    if (classifyNum == 0) {\r\n\r\n      wpinfo[wpindex].attendanceList[index].startDay.push(day);\r\n      wpinfo[wpindex].attendanceList[index].startHour.push(hour);\r\n      wpinfo[wpindex].attendanceList[index].startMinute.push(minute);\r\n\r\n      emit Onwork(_person[msg.sender].name, hour, minute);\r\n    \r\n    // \r\n    } else if (classifyNum == 1){\r\n\r\n      wpinfo[wpindex].attendanceList[index].endDay.push(day);\r\n      wpinfo[wpindex].attendanceList[index].endHour.push(hour);\r\n      wpinfo[wpindex].attendanceList[index].endMinute.push(minute);\r\n\r\n      emit Offwork(_person[msg.sender].name, hour, minute);\r\n\r\n    }\r\n\r\n  }\r\n\r\n  //    \r\n  function deleteEmployee(uint256 wpindex, address ad, string calldata endDay) public {\r\n    uint index = getIndexOfEmployee(wpindex, ad);\r\n    uint length = wpinfo[wpindex].employee.length;\r\n\r\n    wpinfo[wpindex].employee[index] = wpinfo[wpindex].employee[length - 1];\r\n    wpinfo[wpindex].laborContractIndex[index] = wpinfo[wpindex].laborContractIndex[length - 1];\r\n    wpinfo[wpindex].attendanceList[index] = wpinfo[wpindex].attendanceList[length - 1];\r\n\r\n    wpinfo[wpindex].employee.pop();\r\n    wpinfo[wpindex].laborContractIndex.pop();\r\n    wpinfo[wpindex].attendanceList.pop();\r\n\r\n    for(uint x = 0; x < _person[ad].career.index.length; x++) {\r\n      if (_person[ad].career.index[x] == wpindex) {\r\n        _person[ad].career.endDay[x] = endDay;\r\n      }\r\n    }\r\n\r\n    for(uint x = 0; x < _employeeWorkplaceList[ad].length; x++) {\r\n      if (_employeeWorkplaceList[ad][x] == wpindex) {\r\n        _employeeWorkplaceList[ad][x] = _employeeWorkplaceList[ad][_employeeWorkplaceList[ad].length - 1];\r\n         _employeeWorkplaceList[ad].pop();\r\n      }\r\n    }\r\n  }\r\n} ",
  "sourcePath": "D:\\GitHub\\blockchain_management_employee\\employerWeb\\contracts\\LaborContract.sol",
  "compiler": {
    "name": "solc",
    "version": "0.8.0+commit.c7dfd78e.Emscripten.clang"
  },
  "schemaVersion": "3.4.4",
  "updatedAt": "2022-05-05T12:48:40.170Z",
  "networkType": "ethereum",
  "devdoc": {
    "kind": "dev",
    "methods": {},
    "version": 1
  },
  "userdoc": {
    "kind": "user",
    "methods": {},
    "version": 1
  }
}