{
  "contractName": "myNFT",
  "abi": [
    {
      "inputs": [],
      "stateMutability": "nonpayable",
      "type": "constructor"
    },
    {
      "anonymous": false,
      "inputs": [
        {
          "indexed": true,
          "internalType": "address",
          "name": "owner",
          "type": "address"
        },
        {
          "indexed": true,
          "internalType": "address",
          "name": "approved",
          "type": "address"
        },
        {
          "indexed": true,
          "internalType": "uint256",
          "name": "tokenId",
          "type": "uint256"
        }
      ],
      "name": "Approval",
      "type": "event"
    },
    {
      "anonymous": false,
      "inputs": [
        {
          "indexed": true,
          "internalType": "address",
          "name": "owner",
          "type": "address"
        },
        {
          "indexed": true,
          "internalType": "address",
          "name": "operator",
          "type": "address"
        },
        {
          "indexed": false,
          "internalType": "bool",
          "name": "approved",
          "type": "bool"
        }
      ],
      "name": "ApprovalForAll",
      "type": "event"
    },
    {
      "anonymous": false,
      "inputs": [
        {
          "indexed": true,
          "internalType": "address",
          "name": "from",
          "type": "address"
        },
        {
          "indexed": true,
          "internalType": "address",
          "name": "to",
          "type": "address"
        },
        {
          "indexed": true,
          "internalType": "uint256",
          "name": "tokenId",
          "type": "uint256"
        }
      ],
      "name": "Transfer",
      "type": "event"
    },
    {
      "inputs": [
        {
          "internalType": "address",
          "name": "to",
          "type": "address"
        },
        {
          "internalType": "uint256",
          "name": "tokenId",
          "type": "uint256"
        }
      ],
      "name": "approve",
      "outputs": [],
      "stateMutability": "nonpayable",
      "type": "function"
    },
    {
      "inputs": [
        {
          "internalType": "address",
          "name": "owner",
          "type": "address"
        }
      ],
      "name": "balanceOf",
      "outputs": [
        {
          "internalType": "uint256",
          "name": "",
          "type": "uint256"
        }
      ],
      "stateMutability": "view",
      "type": "function",
      "constant": true
    },
    {
      "inputs": [
        {
          "internalType": "address",
          "name": "owner",
          "type": "address"
        }
      ],
      "name": "getAllTokens",
      "outputs": [
        {
          "internalType": "uint256[]",
          "name": "",
          "type": "uint256[]"
        }
      ],
      "stateMutability": "view",
      "type": "function",
      "constant": true
    },
    {
      "inputs": [
        {
          "internalType": "uint256",
          "name": "tokenId",
          "type": "uint256"
        }
      ],
      "name": "getApproved",
      "outputs": [
        {
          "internalType": "address",
          "name": "",
          "type": "address"
        }
      ],
      "stateMutability": "view",
      "type": "function",
      "constant": true
    },
    {
      "inputs": [
        {
          "internalType": "address",
          "name": "owner",
          "type": "address"
        },
        {
          "internalType": "address",
          "name": "operator",
          "type": "address"
        }
      ],
      "name": "isApprovedForAll",
      "outputs": [
        {
          "internalType": "bool",
          "name": "",
          "type": "bool"
        }
      ],
      "stateMutability": "view",
      "type": "function",
      "constant": true
    },
    {
      "inputs": [],
      "name": "name",
      "outputs": [
        {
          "internalType": "string",
          "name": "",
          "type": "string"
        }
      ],
      "stateMutability": "view",
      "type": "function",
      "constant": true
    },
    {
      "inputs": [
        {
          "internalType": "uint256",
          "name": "tokenId",
          "type": "uint256"
        }
      ],
      "name": "ownerOf",
      "outputs": [
        {
          "internalType": "address",
          "name": "",
          "type": "address"
        }
      ],
      "stateMutability": "view",
      "type": "function",
      "constant": true
    },
    {
      "inputs": [
        {
          "internalType": "address",
          "name": "from",
          "type": "address"
        },
        {
          "internalType": "address",
          "name": "to",
          "type": "address"
        },
        {
          "internalType": "uint256",
          "name": "tokenId",
          "type": "uint256"
        }
      ],
      "name": "safeTransferFrom",
      "outputs": [],
      "stateMutability": "nonpayable",
      "type": "function"
    },
    {
      "inputs": [
        {
          "internalType": "address",
          "name": "from",
          "type": "address"
        },
        {
          "internalType": "address",
          "name": "to",
          "type": "address"
        },
        {
          "internalType": "uint256",
          "name": "tokenId",
          "type": "uint256"
        },
        {
          "internalType": "bytes",
          "name": "_data",
          "type": "bytes"
        }
      ],
      "name": "safeTransferFrom",
      "outputs": [],
      "stateMutability": "nonpayable",
      "type": "function"
    },
    {
      "inputs": [
        {
          "internalType": "address",
          "name": "operator",
          "type": "address"
        },
        {
          "internalType": "bool",
          "name": "approved",
          "type": "bool"
        }
      ],
      "name": "setApprovalForAll",
      "outputs": [],
      "stateMutability": "nonpayable",
      "type": "function"
    },
    {
      "inputs": [
        {
          "internalType": "bytes4",
          "name": "interfaceId",
          "type": "bytes4"
        }
      ],
      "name": "supportsInterface",
      "outputs": [
        {
          "internalType": "bool",
          "name": "",
          "type": "bool"
        }
      ],
      "stateMutability": "view",
      "type": "function",
      "constant": true
    },
    {
      "inputs": [],
      "name": "symbol",
      "outputs": [
        {
          "internalType": "string",
          "name": "",
          "type": "string"
        }
      ],
      "stateMutability": "view",
      "type": "function",
      "constant": true
    },
    {
      "inputs": [
        {
          "internalType": "uint256",
          "name": "tokenId",
          "type": "uint256"
        }
      ],
      "name": "tokenURI",
      "outputs": [
        {
          "internalType": "string",
          "name": "",
          "type": "string"
        }
      ],
      "stateMutability": "view",
      "type": "function",
      "constant": true
    },
    {
      "inputs": [
        {
          "internalType": "address",
          "name": "from",
          "type": "address"
        },
        {
          "internalType": "address",
          "name": "to",
          "type": "address"
        },
        {
          "internalType": "uint256",
          "name": "tokenId",
          "type": "uint256"
        }
      ],
      "name": "transferFrom",
      "outputs": [],
      "stateMutability": "nonpayable",
      "type": "function"
    },
    {
      "inputs": [
        {
          "internalType": "address",
          "name": "to",
          "type": "address"
        },
        {
          "internalType": "string",
          "name": "tokenURI",
          "type": "string"
        }
      ],
      "name": "mintNFT",
      "outputs": [
        {
          "internalType": "uint256",
          "name": "",
          "type": "uint256"
        }
      ],
      "stateMutability": "nonpayable",
      "type": "function"
    },
    {
      "inputs": [],
      "name": "getTokenIdNow",
      "outputs": [
        {
          "internalType": "uint256",
          "name": "",
          "type": "uint256"
        }
      ],
      "stateMutability": "view",
      "type": "function",
      "constant": true
    }
  ],
  "bytecode": "0x608060405260006008553480156200001657600080fd5b506040805180820182526005815264426164676560d81b60208083019182528351808501909452600384526242444760e81b9084015281519192916200005f916000916200007e565b508051620000759060019060208401906200007e565b50505062000161565b8280546200008c9062000124565b90600052602060002090601f016020900481019282620000b05760008555620000fb565b82601f10620000cb57805160ff1916838001178555620000fb565b82800160010185558215620000fb579182015b82811115620000fb578251825591602001919060010190620000de565b50620001099291506200010d565b5090565b5b808211156200010957600081556001016200010e565b6002810460018216806200013957607f821691505b602082108114156200015b57634e487b7160e01b600052602260045260246000fd5b50919050565b6118be80620001716000396000f3fe608060405234801561001057600080fd5b50600436106101005760003560e01c80636352211e11610097578063b88d4fde11610066578063b88d4fde14610214578063c87b56dd14610227578063e985e9c51461023a578063eacabe141461024d57610100565b80636352211e146101d357806370a08231146101e657806395d89b41146101f9578063a22cb4651461020157610100565b8063178b6de6116100d3578063178b6de61461017857806323b872dd1461019857806342842e0e146101ab57806345a06214146101be57610100565b806301ffc9a71461010557806306fdde031461012e578063081812fc14610143578063095ea7b314610163575b600080fd5b610118610113366004611163565b610260565b60405161012591906112a3565b60405180910390f35b6101366102a8565b60405161012591906112ae565b61015661015136600461119b565b61033a565b604051610125919061120e565b61017661017136600461113a565b610386565b005b61018b610186366004610fa1565b61041e565b604051610125919061125f565b6101766101a6366004610fed565b61048a565b6101766101b9366004610fed565b6104c2565b6101c66104dd565b604051610125919061174b565b6101566101e136600461119b565b6104e3565b6101c66101f4366004610fa1565b610518565b61013661055c565b61017661020f3660046110a1565b61056b565b610176610222366004611028565b610639565b61013661023536600461119b565b610678565b610118610248366004610fbb565b610799565b6101c661025b3660046110db565b6107c7565b60006001600160e01b031982166380ac58cd60e01b148061029157506001600160e01b03198216635b5e139f60e01b145b806102a057506102a082610800565b90505b919050565b6060600080546102b7906117c3565b80601f01602080910402602001604051908101604052809291908181526020018280546102e3906117c3565b80156103305780601f1061030557610100808354040283529160200191610330565b820191906000526020600020905b81548152906001019060200180831161031357829003601f168201915b5050505050905090565b600061034582610819565b61036a5760405162461bcd60e51b8152600401610361906115d5565b60405180910390fd5b506000908152600460205260409020546001600160a01b031690565b6000610391826104e3565b9050806001600160a01b0316836001600160a01b031614156103c55760405162461bcd60e51b8152600401610361906116b9565b806001600160a01b03166103d7610836565b6001600160a01b031614806103f357506103f381610248610836565b61040f5760405162461bcd60e51b815260040161036190611411565b610419838361083a565b505050565b6001600160a01b03811660009081526006602090815260409182902080548351818402810184019094528084526060939283018282801561047e57602002820191906000526020600020905b81548152602001906001019080831161046a575b50505050509050919050565b61049b610495610836565b826108a8565b6104b75760405162461bcd60e51b8152600401610361906116fa565b610419838383610925565b61041983838360405180602001604052806000815250610639565b60085490565b6000818152600260205260408120546001600160a01b0316806102a05760405162461bcd60e51b8152600401610361906114b8565b60006001600160a01b0382166105405760405162461bcd60e51b81526004016103619061146e565b506001600160a01b031660009081526003602052604090205490565b6060600180546102b7906117c3565b610573610836565b6001600160a01b0316826001600160a01b031614156105a45760405162461bcd60e51b81526004016103619061138e565b80600560006105b1610836565b6001600160a01b03908116825260208083019390935260409182016000908120918716808252919093529120805460ff1916921515929092179091556105f5610836565b6001600160a01b03167f17307eab39ab6107e8899845ad3d59bd9653f200f220920489ca2b5937696c318360405161062d91906112a3565b60405180910390a35050565b61064a610644610836565b836108a8565b6106665760405162461bcd60e51b8152600401610361906116fa565b61067284848484610a47565b50505050565b606061068382610819565b61069f5760405162461bcd60e51b815260040161036190611584565b600082815260076020526040812080546106b8906117c3565b80601f01602080910402602001604051908101604052809291908181526020018280546106e4906117c3565b80156107315780601f1061070657610100808354040283529160200191610731565b820191906000526020600020905b81548152906001019060200180831161071457829003601f168201915b505050505090506000610742610a7a565b9050805160001415610756575090506102a3565b8151156107885780826040516020016107709291906111df565b604051602081830303815290604052925050506102a3565b61079184610a8c565b949350505050565b6001600160a01b03918216600090815260056020908152604080832093909416825291909152205460ff1690565b60006107d583600854610b0f565b6107e160085483610c01565b600880549060006107f1836117fe565b90915550506008549392505050565b6001600160e01b031981166301ffc9a760e01b14919050565b6000908152600260205260409020546001600160a01b0316151590565b3390565b600081815260046020526040902080546001600160a01b0319166001600160a01b038416908117909155819061086f826104e3565b6001600160a01b03167f8c5be1e5ebec7d5bd14f71427d1e84f3dd0314c0f7b2291e5b200ac8c7c3b92560405160405180910390a45050565b60006108b382610819565b6108cf5760405162461bcd60e51b8152600401610361906113c5565b60006108da836104e3565b9050806001600160a01b0316846001600160a01b031614806109155750836001600160a01b031661090a8461033a565b6001600160a01b0316145b8061079157506107918185610799565b826001600160a01b0316610938826104e3565b6001600160a01b03161461095e5760405162461bcd60e51b815260040161036190611621565b6001600160a01b0382166109845760405162461bcd60e51b81526004016103619061134a565b61098f60008261083a565b6001600160a01b03831660009081526003602052604081208054600192906109b8908490611780565b90915550506001600160a01b03821660009081526003602052604081208054600192906109e6908490611754565b909155505060008181526002602052604080822080546001600160a01b0319166001600160a01b0386811691821790925591518493918716917fddf252ad1be2c89b69c2b068fc378daa952ba7f163c4a11628f55a4df523b3ef91a4505050565b610a52848484610925565b610a5e84848484610c45565b6106725760405162461bcd60e51b8152600401610361906112c1565b60408051602081019091526000815290565b6060610a9782610819565b610ab35760405162461bcd60e51b81526004016103619061166a565b6000610abd610a7a565b90506000815111610add5760405180602001604052806000815250610b08565b80610ae784610d60565b604051602001610af89291906111df565b6040516020818303038152906040525b9392505050565b6001600160a01b038216610b355760405162461bcd60e51b81526004016103619061154f565b610b3e81610819565b15610b5b5760405162461bcd60e51b815260040161036190611313565b6001600160a01b0382166000908152600360205260408120805460019290610b84908490611754565b9091555050600081815260026020908152604080832080546001600160a01b0319166001600160a01b038716908117909155808452600683528184208054600181018255908552928420909201849055518392907fddf252ad1be2c89b69c2b068fc378daa952ba7f163c4a11628f55a4df523b3ef908290a45050565b610c0a82610819565b610c265760405162461bcd60e51b815260040161036190611501565b6000828152600760209081526040909120825161041992840190610e81565b6000610c59846001600160a01b0316610e7b565b15610d5557836001600160a01b031663150b7a02610c75610836565b8786866040518563ffffffff1660e01b8152600401610c979493929190611222565b602060405180830381600087803b158015610cb157600080fd5b505af1925050508015610ce1575060408051601f3d908101601f19168201909252610cde9181019061117f565b60015b610d3b573d808015610d0f576040519150601f19603f3d011682016040523d82523d6000602084013e610d14565b606091505b508051610d335760405162461bcd60e51b8152600401610361906112c1565b805181602001fd5b6001600160e01b031916630a85bd0160e11b149050610791565b506001949350505050565b606081610d8557506040805180820190915260018152600360fc1b60208201526102a3565b8160005b8115610daf5780610d99816117fe565b9150610da89050600a8361176c565b9150610d89565b60008167ffffffffffffffff811115610dd857634e487b7160e01b600052604160045260246000fd5b6040519080825280601f01601f191660200182016040528015610e02576020820181803683370190505b5090505b841561079157610e17600183611780565b9150610e24600a86611819565b610e2f906030611754565b60f81b818381518110610e5257634e487b7160e01b600052603260045260246000fd5b60200101906001600160f81b031916908160001a905350610e74600a8661176c565b9450610e06565b3b151590565b828054610e8d906117c3565b90600052602060002090601f016020900481019282610eaf5760008555610ef5565b82601f10610ec857805160ff1916838001178555610ef5565b82800160010185558215610ef5579182015b82811115610ef5578251825591602001919060010190610eda565b50610f01929150610f05565b5090565b5b80821115610f015760008155600101610f06565b600067ffffffffffffffff80841115610f3557610f35611859565b604051601f8501601f191681016020018281118282101715610f5957610f59611859565b604052848152915081838501861015610f7157600080fd5b8484602083013760006020868301015250509392505050565b80356001600160a01b03811681146102a357600080fd5b600060208284031215610fb2578081fd5b610b0882610f8a565b60008060408385031215610fcd578081fd5b610fd683610f8a565b9150610fe460208401610f8a565b90509250929050565b600080600060608486031215611001578081fd5b61100a84610f8a565b925061101860208501610f8a565b9150604084013590509250925092565b6000806000806080858703121561103d578081fd5b61104685610f8a565b935061105460208601610f8a565b925060408501359150606085013567ffffffffffffffff811115611076578182fd5b8501601f81018713611086578182fd5b61109587823560208401610f1a565b91505092959194509250565b600080604083850312156110b3578182fd5b6110bc83610f8a565b9150602083013580151581146110d0578182fd5b809150509250929050565b600080604083850312156110ed578182fd5b6110f683610f8a565b9150602083013567ffffffffffffffff811115611111578182fd5b8301601f81018513611121578182fd5b61113085823560208401610f1a565b9150509250929050565b6000806040838503121561114c578182fd5b61115583610f8a565b946020939093013593505050565b600060208284031215611174578081fd5b8135610b088161186f565b600060208284031215611190578081fd5b8151610b088161186f565b6000602082840312156111ac578081fd5b5035919050565b600081518084526111cb816020860160208601611797565b601f01601f19169290920160200192915050565b600083516111f1818460208801611797565b835190830190611205818360208801611797565b01949350505050565b6001600160a01b0391909116815260200190565b6001600160a01b0385811682528416602082015260408101839052608060608201819052600090611255908301846111b3565b9695505050505050565b6020808252825182820181905260009190848201906040850190845b818110156112975783518352928401929184019160010161127b565b50909695505050505050565b901515815260200190565b600060208252610b0860208301846111b3565b60208082526032908201527f4552433732313a207472616e7366657220746f206e6f6e20455243373231526560408201527131b2b4bb32b91034b6b83632b6b2b73a32b960711b606082015260800190565b6020808252601c908201527f4552433732313a20746f6b656e20616c7265616479206d696e74656400000000604082015260600190565b60208082526024908201527f4552433732313a207472616e7366657220746f20746865207a65726f206164646040820152637265737360e01b606082015260800190565b60208082526019908201527f4552433732313a20617070726f766520746f2063616c6c657200000000000000604082015260600190565b6020808252602c908201527f4552433732313a206f70657261746f7220717565727920666f72206e6f6e657860408201526b34b9ba32b73a103a37b5b2b760a11b606082015260800190565b60208082526038908201527f4552433732313a20617070726f76652063616c6c6572206973206e6f74206f7760408201527f6e6572206e6f7220617070726f76656420666f7220616c6c0000000000000000606082015260800190565b6020808252602a908201527f4552433732313a2062616c616e636520717565727920666f7220746865207a65604082015269726f206164647265737360b01b606082015260800190565b60208082526029908201527f4552433732313a206f776e657220717565727920666f72206e6f6e657869737460408201526832b73a103a37b5b2b760b91b606082015260800190565b6020808252602e908201527f45524337323155524953746f726167653a2055524920736574206f66206e6f6e60408201526d32bc34b9ba32b73a103a37b5b2b760911b606082015260800190565b6020808252818101527f4552433732313a206d696e7420746f20746865207a65726f2061646472657373604082015260600190565b60208082526031908201527f45524337323155524953746f726167653a2055524920717565727920666f72206040820152703737b732bc34b9ba32b73a103a37b5b2b760791b606082015260800190565b6020808252602c908201527f4552433732313a20617070726f76656420717565727920666f72206e6f6e657860408201526b34b9ba32b73a103a37b5b2b760a11b606082015260800190565b60208082526029908201527f4552433732313a207472616e73666572206f6620746f6b656e2074686174206960408201526839903737ba1037bbb760b91b606082015260800190565b6020808252602f908201527f4552433732314d657461646174613a2055524920717565727920666f72206e6f60408201526e3732bc34b9ba32b73a103a37b5b2b760891b606082015260800190565b60208082526021908201527f4552433732313a20617070726f76616c20746f2063757272656e74206f776e656040820152603960f91b606082015260800190565b60208082526031908201527f4552433732313a207472616e736665722063616c6c6572206973206e6f74206f6040820152701ddb995c881b9bdc88185c1c1c9bdd9959607a1b606082015260800190565b90815260200190565b600082198211156117675761176761182d565b500190565b60008261177b5761177b611843565b500490565b6000828210156117925761179261182d565b500390565b60005b838110156117b257818101518382015260200161179a565b838111156106725750506000910152565b6002810460018216806117d757607f821691505b602082108114156117f857634e487b7160e01b600052602260045260246000fd5b50919050565b60006000198214156118125761181261182d565b5060010190565b60008261182857611828611843565b500690565b634e487b7160e01b600052601160045260246000fd5b634e487b7160e01b600052601260045260246000fd5b634e487b7160e01b600052604160045260246000fd5b6001600160e01b03198116811461188557600080fd5b5056fea2646970667358221220607af81c0d4fd16f272906b5509bd72b2dd460d2795085c87162291bdd56906764736f6c63430008000033",
  "immutableReferences": {},
  "source": "// SPDX-License-Identifier: MIT\r\n\r\npragma solidity ^0.8.0;\r\n\r\nimport \"./ERC721URIStorage.sol\";\r\n\r\ncontract myNFT is ERC721URIStorage {\r\n\r\n    uint private _tokenId = 0;\r\n\r\n    constructor() ERC721(\"Badge\", \"BDG\") public { }\r\n\r\n    function mintNFT(address to, string memory tokenURI) public returns (uint256) {\r\n        _mint(to, _tokenId);\r\n        _setTokenURI(_tokenId, tokenURI);\r\n\r\n        _tokenId++;\r\n\r\n        return _tokenId;\r\n    }\r\n\r\n    function getTokenIdNow() public view returns (uint256) {\r\n        return _tokenId;\r\n    }\r\n}",
  "sourcePath": "D:\\GitHub\\blockchain_management_employee\\employerWeb\\contracts\\myNFT.sol",
  "compiler": {
    "name": "solc",
    "version": "0.8.0+commit.c7dfd78e.Emscripten.clang"
  },
  "schemaVersion": "3.4.4",
  "updatedAt": "2022-05-05T12:48:40.141Z",
  "networkType": "ethereum",
  "devdoc": {
    "kind": "dev",
    "methods": {
      "approve(address,uint256)": {
        "details": "See {IERC721-approve}."
      },
      "balanceOf(address)": {
        "details": "See {IERC721-balanceOf}."
      },
      "getApproved(uint256)": {
        "details": "See {IERC721-getApproved}."
      },
      "isApprovedForAll(address,address)": {
        "details": "See {IERC721-isApprovedForAll}."
      },
      "name()": {
        "details": "See {IERC721Metadata-name}."
      },
      "ownerOf(uint256)": {
        "details": "See {IERC721-ownerOf}."
      },
      "safeTransferFrom(address,address,uint256)": {
        "details": "See {IERC721-safeTransferFrom}."
      },
      "safeTransferFrom(address,address,uint256,bytes)": {
        "details": "See {IERC721-safeTransferFrom}."
      },
      "setApprovalForAll(address,bool)": {
        "details": "See {IERC721-setApprovalForAll}."
      },
      "supportsInterface(bytes4)": {
        "details": "See {IERC165-supportsInterface}."
      },
      "symbol()": {
        "details": "See {IERC721Metadata-symbol}."
      },
      "tokenURI(uint256)": {
        "details": "See {IERC721Metadata-tokenURI}."
      },
      "transferFrom(address,address,uint256)": {
        "details": "See {IERC721-transferFrom}."
      }
    },
    "version": 1
  },
  "userdoc": {
    "kind": "user",
    "methods": {},
    "version": 1
  }
}