{
  "contractName": "myNFT",
  "abi": [
    {
      "inputs": [],
      "stateMutability": "nonpayable",
      "type": "constructor"
    },
    {
      "anonymous": false,
      "inputs": [
        {
          "indexed": true,
          "internalType": "address",
          "name": "owner",
          "type": "address"
        },
        {
          "indexed": true,
          "internalType": "address",
          "name": "approved",
          "type": "address"
        },
        {
          "indexed": true,
          "internalType": "uint256",
          "name": "tokenId",
          "type": "uint256"
        }
      ],
      "name": "Approval",
      "type": "event"
    },
    {
      "anonymous": false,
      "inputs": [
        {
          "indexed": true,
          "internalType": "address",
          "name": "owner",
          "type": "address"
        },
        {
          "indexed": true,
          "internalType": "address",
          "name": "operator",
          "type": "address"
        },
        {
          "indexed": false,
          "internalType": "bool",
          "name": "approved",
          "type": "bool"
        }
      ],
      "name": "ApprovalForAll",
      "type": "event"
    },
    {
      "anonymous": false,
      "inputs": [
        {
          "indexed": true,
          "internalType": "address",
          "name": "from",
          "type": "address"
        },
        {
          "indexed": true,
          "internalType": "address",
          "name": "to",
          "type": "address"
        },
        {
          "indexed": true,
          "internalType": "uint256",
          "name": "tokenId",
          "type": "uint256"
        }
      ],
      "name": "Transfer",
      "type": "event"
    },
    {
      "inputs": [
        {
          "internalType": "address",
          "name": "to",
          "type": "address"
        },
        {
          "internalType": "uint256",
          "name": "tokenId",
          "type": "uint256"
        }
      ],
      "name": "approve",
      "outputs": [],
      "stateMutability": "nonpayable",
      "type": "function"
    },
    {
      "inputs": [
        {
          "internalType": "address",
          "name": "owner",
          "type": "address"
        }
      ],
      "name": "balanceOf",
      "outputs": [
        {
          "internalType": "uint256",
          "name": "",
          "type": "uint256"
        }
      ],
      "stateMutability": "view",
      "type": "function",
      "constant": true
    },
    {
      "inputs": [
        {
          "internalType": "address",
          "name": "owner",
          "type": "address"
        }
      ],
      "name": "getAllTokens",
      "outputs": [
        {
          "internalType": "uint256[]",
          "name": "",
          "type": "uint256[]"
        }
      ],
      "stateMutability": "view",
      "type": "function",
      "constant": true
    },
    {
      "inputs": [
        {
          "internalType": "uint256",
          "name": "tokenId",
          "type": "uint256"
        }
      ],
      "name": "getApproved",
      "outputs": [
        {
          "internalType": "address",
          "name": "",
          "type": "address"
        }
      ],
      "stateMutability": "view",
      "type": "function",
      "constant": true
    },
    {
      "inputs": [
        {
          "internalType": "address",
          "name": "owner",
          "type": "address"
        },
        {
          "internalType": "address",
          "name": "operator",
          "type": "address"
        }
      ],
      "name": "isApprovedForAll",
      "outputs": [
        {
          "internalType": "bool",
          "name": "",
          "type": "bool"
        }
      ],
      "stateMutability": "view",
      "type": "function",
      "constant": true
    },
    {
      "inputs": [],
      "name": "name",
      "outputs": [
        {
          "internalType": "string",
          "name": "",
          "type": "string"
        }
      ],
      "stateMutability": "view",
      "type": "function",
      "constant": true
    },
    {
      "inputs": [
        {
          "internalType": "uint256",
          "name": "tokenId",
          "type": "uint256"
        }
      ],
      "name": "ownerOf",
      "outputs": [
        {
          "internalType": "address",
          "name": "",
          "type": "address"
        }
      ],
      "stateMutability": "view",
      "type": "function",
      "constant": true
    },
    {
      "inputs": [
        {
          "internalType": "address",
          "name": "from",
          "type": "address"
        },
        {
          "internalType": "address",
          "name": "to",
          "type": "address"
        },
        {
          "internalType": "uint256",
          "name": "tokenId",
          "type": "uint256"
        }
      ],
      "name": "safeTransferFrom",
      "outputs": [],
      "stateMutability": "nonpayable",
      "type": "function"
    },
    {
      "inputs": [
        {
          "internalType": "address",
          "name": "from",
          "type": "address"
        },
        {
          "internalType": "address",
          "name": "to",
          "type": "address"
        },
        {
          "internalType": "uint256",
          "name": "tokenId",
          "type": "uint256"
        },
        {
          "internalType": "bytes",
          "name": "_data",
          "type": "bytes"
        }
      ],
      "name": "safeTransferFrom",
      "outputs": [],
      "stateMutability": "nonpayable",
      "type": "function"
    },
    {
      "inputs": [
        {
          "internalType": "address",
          "name": "operator",
          "type": "address"
        },
        {
          "internalType": "bool",
          "name": "approved",
          "type": "bool"
        }
      ],
      "name": "setApprovalForAll",
      "outputs": [],
      "stateMutability": "nonpayable",
      "type": "function"
    },
    {
      "inputs": [
        {
          "internalType": "bytes4",
          "name": "interfaceId",
          "type": "bytes4"
        }
      ],
      "name": "supportsInterface",
      "outputs": [
        {
          "internalType": "bool",
          "name": "",
          "type": "bool"
        }
      ],
      "stateMutability": "view",
      "type": "function",
      "constant": true
    },
    {
      "inputs": [],
      "name": "symbol",
      "outputs": [
        {
          "internalType": "string",
          "name": "",
          "type": "string"
        }
      ],
      "stateMutability": "view",
      "type": "function",
      "constant": true
    },
    {
      "inputs": [
        {
          "internalType": "uint256",
          "name": "tokenId",
          "type": "uint256"
        }
      ],
      "name": "tokenURI",
      "outputs": [
        {
          "internalType": "string",
          "name": "",
          "type": "string"
        }
      ],
      "stateMutability": "view",
      "type": "function",
      "constant": true
    },
    {
      "inputs": [
        {
          "internalType": "address",
          "name": "from",
          "type": "address"
        },
        {
          "internalType": "address",
          "name": "to",
          "type": "address"
        },
        {
          "internalType": "uint256",
          "name": "tokenId",
          "type": "uint256"
        }
      ],
      "name": "transferFrom",
      "outputs": [],
      "stateMutability": "nonpayable",
      "type": "function"
    },
    {
      "inputs": [
        {
          "internalType": "address",
          "name": "to",
          "type": "address"
        },
        {
          "internalType": "string",
          "name": "tokenURI",
          "type": "string"
        }
      ],
      "name": "mintNFT",
      "outputs": [
        {
          "internalType": "uint256",
          "name": "",
          "type": "uint256"
        }
      ],
      "stateMutability": "nonpayable",
      "type": "function"
    }
  ],
  "bytecode": "0x608060405260006008553480156200001657600080fd5b506040518060400160405280600581526020017f42616467650000000000000000000000000000000000000000000000000000008152506040518060400160405280600381526020017f424447000000000000000000000000000000000000000000000000000000000081525081600090805190602001906200009b929190620000bd565b508060019080519060200190620000b4929190620000bd565b505050620001d2565b828054620000cb906200016d565b90600052602060002090601f016020900481019282620000ef57600085556200013b565b82601f106200010a57805160ff19168380011785556200013b565b828001600101855582156200013b579182015b828111156200013a5782518255916020019190600101906200011d565b5b5090506200014a91906200014e565b5090565b5b80821115620001695760008160009055506001016200014f565b5090565b600060028204905060018216806200018657607f821691505b602082108114156200019d576200019c620001a3565b5b50919050565b7f4e487b7100000000000000000000000000000000000000000000000000000000600052602260045260246000fd5b612c4a80620001e26000396000f3fe608060405234801561001057600080fd5b50600436106100f55760003560e01c80636352211e11610097578063b88d4fde11610066578063b88d4fde14610296578063c87b56dd146102b2578063e985e9c5146102e2578063eacabe1414610312576100f5565b80636352211e146101fc57806370a082311461022c57806395d89b411461025c578063a22cb4651461027a576100f5565b8063095ea7b3116100d3578063095ea7b314610178578063178b6de61461019457806323b872dd146101c457806342842e0e146101e0576100f5565b806301ffc9a7146100fa57806306fdde031461012a578063081812fc14610148575b600080fd5b610114600480360381019061010f9190611cfe565b610342565b6040516101219190612569565b60405180910390f35b610132610424565b60405161013f9190612584565b60405180910390f35b610162600480360381019061015d9190611d50565b6104b6565b60405161016f91906124e0565b60405180910390f35b610192600480360381019061018d9190611cc2565b61053b565b005b6101ae60048036038101906101a99190611b03565b610653565b6040516101bb9190612547565b60405180910390f35b6101de60048036038101906101d99190611b68565b6106ea565b005b6101fa60048036038101906101f59190611b68565b61074a565b005b61021660048036038101906102119190611d50565b61076a565b60405161022391906124e0565b60405180910390f35b61024660048036038101906102419190611b03565b61081c565b60405161025391906127a6565b60405180910390f35b6102646108d4565b6040516102719190612584565b60405180910390f35b610294600480360381019061028f9190611c32565b610966565b005b6102b060048036038101906102ab9190611bb7565b610ae7565b005b6102cc60048036038101906102c79190611d50565b610b49565b6040516102d99190612584565b60405180910390f35b6102fc60048036038101906102f79190611b2c565b610c9b565b6040516103099190612569565b60405180910390f35b61032c60048036038101906103279190611c6e565b610d2f565b60405161033991906127a6565b60405180910390f35b60007f80ac58cd000000000000000000000000000000000000000000000000000000007bffffffffffffffffffffffffffffffffffffffffffffffffffffffff1916827bffffffffffffffffffffffffffffffffffffffffffffffffffffffff1916148061040d57507f5b5e139f000000000000000000000000000000000000000000000000000000007bffffffffffffffffffffffffffffffffffffffffffffffffffffffff1916827bffffffffffffffffffffffffffffffffffffffffffffffffffffffff1916145b8061041d575061041c82610d54565b5b9050919050565b60606000805461043390612a3f565b80601f016020809104026020016040519081016040528092919081815260200182805461045f90612a3f565b80156104ac5780601f10610481576101008083540402835291602001916104ac565b820191906000526020600020905b81548152906001019060200180831161048f57829003601f168201915b5050505050905090565b60006104c182610dbe565b610500576040517f08c379a00000000000000000000000000000000000000000000000000000000081526004016104f790612706565b60405180910390fd5b6004600083815260200190815260200160002060009054906101000a900473ffffffffffffffffffffffffffffffffffffffff169050919050565b60006105468261076a565b90508073ffffffffffffffffffffffffffffffffffffffff168373ffffffffffffffffffffffffffffffffffffffff1614156105b7576040517f08c379a00000000000000000000000000000000000000000000000000000000081526004016105ae90612766565b60405180910390fd5b8073ffffffffffffffffffffffffffffffffffffffff166105d6610e2a565b73ffffffffffffffffffffffffffffffffffffffff1614806106055750610604816105ff610e2a565b610c9b565b5b610644576040517f08c379a000000000000000000000000000000000000000000000000000000000815260040161063b90612646565b60405180910390fd5b61064e8383610e32565b505050565b6060600660008373ffffffffffffffffffffffffffffffffffffffff1673ffffffffffffffffffffffffffffffffffffffff1681526020019081526020016000208054806020026020016040519081016040528092919081815260200182805480156106de57602002820191906000526020600020905b8154815260200190600101908083116106ca575b50505050509050919050565b6106fb6106f5610e2a565b82610eeb565b61073a576040517f08c379a000000000000000000000000000000000000000000000000000000000815260040161073190612786565b60405180910390fd5b610745838383610fc9565b505050565b61076583838360405180602001604052806000815250610ae7565b505050565b6000806002600084815260200190815260200160002060009054906101000a900473ffffffffffffffffffffffffffffffffffffffff169050600073ffffffffffffffffffffffffffffffffffffffff168173ffffffffffffffffffffffffffffffffffffffff161415610813576040517f08c379a000000000000000000000000000000000000000000000000000000000815260040161080a90612686565b60405180910390fd5b80915050919050565b60008073ffffffffffffffffffffffffffffffffffffffff168273ffffffffffffffffffffffffffffffffffffffff16141561088d576040517f08c379a000000000000000000000000000000000000000000000000000000000815260040161088490612666565b60405180910390fd5b600360008373ffffffffffffffffffffffffffffffffffffffff1673ffffffffffffffffffffffffffffffffffffffff168152602001908152602001600020549050919050565b6060600180546108e390612a3f565b80601f016020809104026020016040519081016040528092919081815260200182805461090f90612a3f565b801561095c5780601f106109315761010080835404028352916020019161095c565b820191906000526020600020905b81548152906001019060200180831161093f57829003601f168201915b5050505050905090565b61096e610e2a565b73ffffffffffffffffffffffffffffffffffffffff168273ffffffffffffffffffffffffffffffffffffffff1614156109dc576040517f08c379a00000000000000000000000000000000000000000000000000000000081526004016109d390612606565b60405180910390fd5b80600560006109e9610e2a565b73ffffffffffffffffffffffffffffffffffffffff1673ffffffffffffffffffffffffffffffffffffffff16815260200190815260200160002060008473ffffffffffffffffffffffffffffffffffffffff1673ffffffffffffffffffffffffffffffffffffffff16815260200190815260200160002060006101000a81548160ff0219169083151502179055508173ffffffffffffffffffffffffffffffffffffffff16610a96610e2a565b73ffffffffffffffffffffffffffffffffffffffff167f17307eab39ab6107e8899845ad3d59bd9653f200f220920489ca2b5937696c3183604051610adb9190612569565b60405180910390a35050565b610af8610af2610e2a565b83610eeb565b610b37576040517f08c379a0000000000000000000000000000000000000000000000000000000008152600401610b2e90612786565b60405180910390fd5b610b438484848461121a565b50505050565b6060610b5482610dbe565b610b93576040517f08c379a0000000000000000000000000000000000000000000000000000000008152600401610b8a906126e6565b60405180910390fd5b6000600760008481526020019081526020016000208054610bb390612a3f565b80601f0160208091040260200160405190810160405280929190818152602001828054610bdf90612a3f565b8015610c2c5780601f10610c0157610100808354040283529160200191610c2c565b820191906000526020600020905b815481529060010190602001808311610c0f57829003601f168201915b505050505090506000610c3d611276565b9050600081511415610c53578192505050610c96565b600082511115610c88578082604051602001610c709291906124bc565b60405160208183030381529060405292505050610c96565b610c918461128d565b925050505b919050565b6000600560008473ffffffffffffffffffffffffffffffffffffffff1673ffffffffffffffffffffffffffffffffffffffff16815260200190815260200160002060008373ffffffffffffffffffffffffffffffffffffffff1673ffffffffffffffffffffffffffffffffffffffff16815260200190815260200160002060009054906101000a900460ff16905092915050565b6000610d3d83600854611334565b610d496008548361155c565b600854905092915050565b60007f01ffc9a7000000000000000000000000000000000000000000000000000000007bffffffffffffffffffffffffffffffffffffffffffffffffffffffff1916827bffffffffffffffffffffffffffffffffffffffffffffffffffffffff1916149050919050565b60008073ffffffffffffffffffffffffffffffffffffffff166002600084815260200190815260200160002060009054906101000a900473ffffffffffffffffffffffffffffffffffffffff1673ffffffffffffffffffffffffffffffffffffffff1614159050919050565b600033905090565b816004600083815260200190815260200160002060006101000a81548173ffffffffffffffffffffffffffffffffffffffff021916908373ffffffffffffffffffffffffffffffffffffffff160217905550808273ffffffffffffffffffffffffffffffffffffffff16610ea58361076a565b73ffffffffffffffffffffffffffffffffffffffff167f8c5be1e5ebec7d5bd14f71427d1e84f3dd0314c0f7b2291e5b200ac8c7c3b92560405160405180910390a45050565b6000610ef682610dbe565b610f35576040517f08c379a0000000000000000000000000000000000000000000000000000000008152600401610f2c90612626565b60405180910390fd5b6000610f408361076a565b90508073ffffffffffffffffffffffffffffffffffffffff168473ffffffffffffffffffffffffffffffffffffffff161480610faf57508373ffffffffffffffffffffffffffffffffffffffff16610f97846104b6565b73ffffffffffffffffffffffffffffffffffffffff16145b80610fc05750610fbf8185610c9b565b5b91505092915050565b8273ffffffffffffffffffffffffffffffffffffffff16610fe98261076a565b73ffffffffffffffffffffffffffffffffffffffff161461103f576040517f08c379a000000000000000000000000000000000000000000000000000000000815260040161103690612726565b60405180910390fd5b600073ffffffffffffffffffffffffffffffffffffffff168273ffffffffffffffffffffffffffffffffffffffff1614156110af576040517f08c379a00000000000000000000000000000000000000000000000000000000081526004016110a6906125e6565b60405180910390fd5b6110ba600082610e32565b6001600360008573ffffffffffffffffffffffffffffffffffffffff1673ffffffffffffffffffffffffffffffffffffffff168152602001908152602001600020600082825461110a9190612955565b925050819055506001600360008473ffffffffffffffffffffffffffffffffffffffff1673ffffffffffffffffffffffffffffffffffffffff168152602001908152602001600020600082825461116191906128ce565b92505081905550816002600083815260200190815260200160002060006101000a81548173ffffffffffffffffffffffffffffffffffffffff021916908373ffffffffffffffffffffffffffffffffffffffff160217905550808273ffffffffffffffffffffffffffffffffffffffff168473ffffffffffffffffffffffffffffffffffffffff167fddf252ad1be2c89b69c2b068fc378daa952ba7f163c4a11628f55a4df523b3ef60405160405180910390a4505050565b611225848484610fc9565b611231848484846115d0565b611270576040517f08c379a0000000000000000000000000000000000000000000000000000000008152600401611267906125a6565b60405180910390fd5b50505050565b606060405180602001604052806000815250905090565b606061129882610dbe565b6112d7576040517f08c379a00000000000000000000000000000000000000000000000000000000081526004016112ce90612746565b60405180910390fd5b60006112e1611276565b90506000815111611301576040518060200160405280600081525061132c565b8061130b84611767565b60405160200161131c9291906124bc565b6040516020818303038152906040525b915050919050565b600073ffffffffffffffffffffffffffffffffffffffff168273ffffffffffffffffffffffffffffffffffffffff1614156113a4576040517f08c379a000000000000000000000000000000000000000000000000000000000815260040161139b906126c6565b60405180910390fd5b6113ad81610dbe565b156113ed576040517f08c379a00000000000000000000000000000000000000000000000000000000081526004016113e4906125c6565b60405180910390fd5b6001600360008473ffffffffffffffffffffffffffffffffffffffff1673ffffffffffffffffffffffffffffffffffffffff168152602001908152602001600020600082825461143d91906128ce565b92505081905550816002600083815260200190815260200160002060006101000a81548173ffffffffffffffffffffffffffffffffffffffff021916908373ffffffffffffffffffffffffffffffffffffffff160217905550600660008373ffffffffffffffffffffffffffffffffffffffff1673ffffffffffffffffffffffffffffffffffffffff168152602001908152602001600020819080600181540180825580915050600190039060005260206000200160009091909190915055808273ffffffffffffffffffffffffffffffffffffffff16600073ffffffffffffffffffffffffffffffffffffffff167fddf252ad1be2c89b69c2b068fc378daa952ba7f163c4a11628f55a4df523b3ef60405160405180910390a45050565b61156582610dbe565b6115a4576040517f08c379a000000000000000000000000000000000000000000000000000000000815260040161159b906126a6565b60405180910390fd5b806007600084815260200190815260200160002090805190602001906115cb929190611927565b505050565b60006115f18473ffffffffffffffffffffffffffffffffffffffff16611914565b1561175a578373ffffffffffffffffffffffffffffffffffffffff1663150b7a0261161a610e2a565b8786866040518563ffffffff1660e01b815260040161163c94939291906124fb565b602060405180830381600087803b15801561165657600080fd5b505af192505050801561168757506040513d601f19601f820116820180604052508101906116849190611d27565b60015b61170a573d80600081146116b7576040519150601f19603f3d011682016040523d82523d6000602084013e6116bc565b606091505b50600081511415611702576040517f08c379a00000000000000000000000000000000000000000000000000000000081526004016116f9906125a6565b60405180910390fd5b805181602001fd5b63150b7a0260e01b7bffffffffffffffffffffffffffffffffffffffffffffffffffffffff1916817bffffffffffffffffffffffffffffffffffffffffffffffffffffffff19161491505061175f565b600190505b949350505050565b606060008214156117af576040518060400160405280600181526020017f3000000000000000000000000000000000000000000000000000000000000000815250905061190f565b600082905060005b600082146117e15780806117ca90612a71565b915050600a826117da9190612924565b91506117b7565b60008167ffffffffffffffff811115611823577f4e487b7100000000000000000000000000000000000000000000000000000000600052604160045260246000fd5b6040519080825280601f01601f1916602001820160405280156118555781602001600182028036833780820191505090505b5090505b600085146119085760018261186e9190612955565b9150600a8561187d9190612aba565b603061188991906128ce565b60f81b8183815181106118c5577f4e487b7100000000000000000000000000000000000000000000000000000000600052603260045260246000fd5b60200101907effffffffffffffffffffffffffffffffffffffffffffffffffffffffffffff1916908160001a905350600a856119019190612924565b9450611859565b8093505050505b919050565b600080823b905060008111915050919050565b82805461193390612a3f565b90600052602060002090601f016020900481019282611955576000855561199c565b82601f1061196e57805160ff191683800117855561199c565b8280016001018555821561199c579182015b8281111561199b578251825591602001919060010190611980565b5b5090506119a991906119ad565b5090565b5b808211156119c65760008160009055506001016119ae565b5090565b60006119dd6119d8846127f2565b6127c1565b9050828152602081018484840111156119f557600080fd5b611a008482856129fd565b509392505050565b6000611a1b611a1684612822565b6127c1565b905082815260208101848484011115611a3357600080fd5b611a3e8482856129fd565b509392505050565b600081359050611a5581612bb8565b92915050565b600081359050611a6a81612bcf565b92915050565b600081359050611a7f81612be6565b92915050565b600081519050611a9481612be6565b92915050565b600082601f830112611aab57600080fd5b8135611abb8482602086016119ca565b91505092915050565b600082601f830112611ad557600080fd5b8135611ae5848260208601611a08565b91505092915050565b600081359050611afd81612bfd565b92915050565b600060208284031215611b1557600080fd5b6000611b2384828501611a46565b91505092915050565b60008060408385031215611b3f57600080fd5b6000611b4d85828601611a46565b9250506020611b5e85828601611a46565b9150509250929050565b600080600060608486031215611b7d57600080fd5b6000611b8b86828701611a46565b9350506020611b9c86828701611a46565b9250506040611bad86828701611aee565b9150509250925092565b60008060008060808587031215611bcd57600080fd5b6000611bdb87828801611a46565b9450506020611bec87828801611a46565b9350506040611bfd87828801611aee565b925050606085013567ffffffffffffffff811115611c1a57600080fd5b611c2687828801611a9a565b91505092959194509250565b60008060408385031215611c4557600080fd5b6000611c5385828601611a46565b9250506020611c6485828601611a5b565b9150509250929050565b60008060408385031215611c8157600080fd5b6000611c8f85828601611a46565b925050602083013567ffffffffffffffff811115611cac57600080fd5b611cb885828601611ac4565b9150509250929050565b60008060408385031215611cd557600080fd5b6000611ce385828601611a46565b9250506020611cf485828601611aee565b9150509250929050565b600060208284031215611d1057600080fd5b6000611d1e84828501611a70565b91505092915050565b600060208284031215611d3957600080fd5b6000611d4784828501611a85565b91505092915050565b600060208284031215611d6257600080fd5b6000611d7084828501611aee565b91505092915050565b6000611d85838361249e565b60208301905092915050565b611d9a81612989565b82525050565b6000611dab82612862565b611db58185612890565b9350611dc083612852565b8060005b83811015611df1578151611dd88882611d79565b9750611de383612883565b925050600181019050611dc4565b5085935050505092915050565b611e078161299b565b82525050565b6000611e188261286d565b611e2281856128a1565b9350611e32818560208601612a0c565b611e3b81612ba7565b840191505092915050565b6000611e5182612878565b611e5b81856128b2565b9350611e6b818560208601612a0c565b611e7481612ba7565b840191505092915050565b6000611e8a82612878565b611e9481856128c3565b9350611ea4818560208601612a0c565b80840191505092915050565b6000611ebd6032836128b2565b91507f4552433732313a207472616e7366657220746f206e6f6e20455243373231526560008301527f63656976657220696d706c656d656e74657200000000000000000000000000006020830152604082019050919050565b6000611f23601c836128b2565b91507f4552433732313a20746f6b656e20616c7265616479206d696e746564000000006000830152602082019050919050565b6000611f636024836128b2565b91507f4552433732313a207472616e7366657220746f20746865207a65726f2061646460008301527f72657373000000000000000000000000000000000000000000000000000000006020830152604082019050919050565b6000611fc96019836128b2565b91507f4552433732313a20617070726f766520746f2063616c6c6572000000000000006000830152602082019050919050565b6000612009602c836128b2565b91507f4552433732313a206f70657261746f7220717565727920666f72206e6f6e657860008301527f697374656e7420746f6b656e00000000000000000000000000000000000000006020830152604082019050919050565b600061206f6038836128b2565b91507f4552433732313a20617070726f76652063616c6c6572206973206e6f74206f7760008301527f6e6572206e6f7220617070726f76656420666f7220616c6c00000000000000006020830152604082019050919050565b60006120d5602a836128b2565b91507f4552433732313a2062616c616e636520717565727920666f7220746865207a6560008301527f726f2061646472657373000000000000000000000000000000000000000000006020830152604082019050919050565b600061213b6029836128b2565b91507f4552433732313a206f776e657220717565727920666f72206e6f6e657869737460008301527f656e7420746f6b656e00000000000000000000000000000000000000000000006020830152604082019050919050565b60006121a1602e836128b2565b91507f45524337323155524953746f726167653a2055524920736574206f66206e6f6e60008301527f6578697374656e7420746f6b656e0000000000000000000000000000000000006020830152604082019050919050565b60006122076020836128b2565b91507f4552433732313a206d696e7420746f20746865207a65726f20616464726573736000830152602082019050919050565b60006122476031836128b2565b91507f45524337323155524953746f726167653a2055524920717565727920666f722060008301527f6e6f6e6578697374656e7420746f6b656e0000000000000000000000000000006020830152604082019050919050565b60006122ad602c836128b2565b91507f4552433732313a20617070726f76656420717565727920666f72206e6f6e657860008301527f697374656e7420746f6b656e00000000000000000000000000000000000000006020830152604082019050919050565b60006123136029836128b2565b91507f4552433732313a207472616e73666572206f6620746f6b656e2074686174206960008301527f73206e6f74206f776e00000000000000000000000000000000000000000000006020830152604082019050919050565b6000612379602f836128b2565b91507f4552433732314d657461646174613a2055524920717565727920666f72206e6f60008301527f6e6578697374656e7420746f6b656e00000000000000000000000000000000006020830152604082019050919050565b60006123df6021836128b2565b91507f4552433732313a20617070726f76616c20746f2063757272656e74206f776e6560008301527f72000000000000000000000000000000000000000000000000000000000000006020830152604082019050919050565b60006124456031836128b2565b91507f4552433732313a207472616e736665722063616c6c6572206973206e6f74206f60008301527f776e6572206e6f7220617070726f7665640000000000000000000000000000006020830152604082019050919050565b6124a7816129f3565b82525050565b6124b6816129f3565b82525050565b60006124c88285611e7f565b91506124d48284611e7f565b91508190509392505050565b60006020820190506124f56000830184611d91565b92915050565b60006080820190506125106000830187611d91565b61251d6020830186611d91565b61252a60408301856124ad565b818103606083015261253c8184611e0d565b905095945050505050565b600060208201905081810360008301526125618184611da0565b905092915050565b600060208201905061257e6000830184611dfe565b92915050565b6000602082019050818103600083015261259e8184611e46565b905092915050565b600060208201905081810360008301526125bf81611eb0565b9050919050565b600060208201905081810360008301526125df81611f16565b9050919050565b600060208201905081810360008301526125ff81611f56565b9050919050565b6000602082019050818103600083015261261f81611fbc565b9050919050565b6000602082019050818103600083015261263f81611ffc565b9050919050565b6000602082019050818103600083015261265f81612062565b9050919050565b6000602082019050818103600083015261267f816120c8565b9050919050565b6000602082019050818103600083015261269f8161212e565b9050919050565b600060208201905081810360008301526126bf81612194565b9050919050565b600060208201905081810360008301526126df816121fa565b9050919050565b600060208201905081810360008301526126ff8161223a565b9050919050565b6000602082019050818103600083015261271f816122a0565b9050919050565b6000602082019050818103600083015261273f81612306565b9050919050565b6000602082019050818103600083015261275f8161236c565b9050919050565b6000602082019050818103600083015261277f816123d2565b9050919050565b6000602082019050818103600083015261279f81612438565b9050919050565b60006020820190506127bb60008301846124ad565b92915050565b6000604051905081810181811067ffffffffffffffff821117156127e8576127e7612b78565b5b8060405250919050565b600067ffffffffffffffff82111561280d5761280c612b78565b5b601f19601f8301169050602081019050919050565b600067ffffffffffffffff82111561283d5761283c612b78565b5b601f19601f8301169050602081019050919050565b6000819050602082019050919050565b600081519050919050565b600081519050919050565b600081519050919050565b6000602082019050919050565b600082825260208201905092915050565b600082825260208201905092915050565b600082825260208201905092915050565b600081905092915050565b60006128d9826129f3565b91506128e4836129f3565b9250827fffffffffffffffffffffffffffffffffffffffffffffffffffffffffffffffff0382111561291957612918612aeb565b5b828201905092915050565b600061292f826129f3565b915061293a836129f3565b92508261294a57612949612b1a565b5b828204905092915050565b6000612960826129f3565b915061296b836129f3565b92508282101561297e5761297d612aeb565b5b828203905092915050565b6000612994826129d3565b9050919050565b60008115159050919050565b60007fffffffff0000000000000000000000000000000000000000000000000000000082169050919050565b600073ffffffffffffffffffffffffffffffffffffffff82169050919050565b6000819050919050565b82818337600083830152505050565b60005b83811015612a2a578082015181840152602081019050612a0f565b83811115612a39576000848401525b50505050565b60006002820490506001821680612a5757607f821691505b60208210811415612a6b57612a6a612b49565b5b50919050565b6000612a7c826129f3565b91507fffffffffffffffffffffffffffffffffffffffffffffffffffffffffffffffff821415612aaf57612aae612aeb565b5b600182019050919050565b6000612ac5826129f3565b9150612ad0836129f3565b925082612ae057612adf612b1a565b5b828206905092915050565b7f4e487b7100000000000000000000000000000000000000000000000000000000600052601160045260246000fd5b7f4e487b7100000000000000000000000000000000000000000000000000000000600052601260045260246000fd5b7f4e487b7100000000000000000000000000000000000000000000000000000000600052602260045260246000fd5b7f4e487b7100000000000000000000000000000000000000000000000000000000600052604160045260246000fd5b6000601f19601f8301169050919050565b612bc181612989565b8114612bcc57600080fd5b50565b612bd88161299b565b8114612be357600080fd5b50565b612bef816129a7565b8114612bfa57600080fd5b50565b612c06816129f3565b8114612c1157600080fd5b5056fea2646970667358221220691d2d97b52316d0548273a1453f65592d587cbf92186451bfa868a0bcd9a9b264736f6c63430008000033",
  "immutableReferences": {},
  "source": "// SPDX-License-Identifier: MIT\n\npragma solidity ^0.8.0;\n\nimport \"./ERC721URIStorage.sol\";\n\ncontract myNFT is ERC721URIStorage {\n\n    uint private _tokenId = 0;\n\n    constructor() ERC721(\"Badge\", \"BDG\") public { }\n\n    function mintNFT(address to, string memory tokenURI) public returns (uint256) {\n        _mint(to, _tokenId);\n        _setTokenURI(_tokenId, tokenURI);\n\n        return _tokenId;\n    }\n}",
  "sourcePath": "/Users/somewheregreeny/Documents/GitHub/blockchain_management_employee/employerWeb/contracts/myNFT.sol",
  "compiler": {
    "name": "solc",
    "version": "0.8.0+commit.c7dfd78e.Emscripten.clang"
  },
  "schemaVersion": "3.4.1",
  "updatedAt": "2022-03-24T14:09:11.873Z",
  "networkType": "ethereum",
  "devdoc": {
    "kind": "dev",
    "methods": {
      "approve(address,uint256)": {
        "details": "See {IERC721-approve}."
      },
      "balanceOf(address)": {
        "details": "See {IERC721-balanceOf}."
      },
      "getApproved(uint256)": {
        "details": "See {IERC721-getApproved}."
      },
      "isApprovedForAll(address,address)": {
        "details": "See {IERC721-isApprovedForAll}."
      },
      "name()": {
        "details": "See {IERC721Metadata-name}."
      },
      "ownerOf(uint256)": {
        "details": "See {IERC721-ownerOf}."
      },
      "safeTransferFrom(address,address,uint256)": {
        "details": "See {IERC721-safeTransferFrom}."
      },
      "safeTransferFrom(address,address,uint256,bytes)": {
        "details": "See {IERC721-safeTransferFrom}."
      },
      "setApprovalForAll(address,bool)": {
        "details": "See {IERC721-setApprovalForAll}."
      },
      "supportsInterface(bytes4)": {
        "details": "See {IERC165-supportsInterface}."
      },
      "symbol()": {
        "details": "See {IERC721Metadata-symbol}."
      },
      "tokenURI(uint256)": {
        "details": "See {IERC721Metadata-tokenURI}."
      },
      "transferFrom(address,address,uint256)": {
        "details": "See {IERC721-transferFrom}."
      }
    },
    "version": 1
  },
  "userdoc": {
    "kind": "user",
    "methods": {},
    "version": 1
  }
}